:020000040800F2
:1000000098070020CD010008152700080D270008DB
:1000100011270008CD0A0008412800080000000050
:100020000000000000000000000000001D27000884
:10003000BD0C000800000000192700082127000857
:10004000E7010008E7010008E7010008E7010008F0
:10005000E7010008E7010008E7010008E7010008E0
:10006000E7010008E7010008E7010008E7010008D0
:10007000E7010008E7010008E7010008E7010008C0
:10008000E7010008E7010008E7010008E7010008B0
:10009000E7010008E7010008E7010008E7010008A0
:1000A000E7010008E7010008E7010008E701000890
:1000B000E7010008E7010008E7010008E701000880
:1000C000E7010008E7010008E7010008E701000870
:1000D000E701000835280008E7010008E7010008EB
:1000E000E7010008E7010008E701000800F002F856
:1000F00000F05DF814A696E8000CB244B344DA456B
:1001000001D100F054F8BAE80F000FA696E83000CD
:10011000A5EB040504EB0607AAEB0704A7F101070A
:100120004FEA15154FEA3414A4F10104AC4201D38F
:1001300000F03DF813F0010F18BFFB1A43F0010364
:1001400000F001F8DBE71847203E0000403E0000C9
:10015000103A24BF78C878C1FAD8520724BF30C8F3
:1001600030C144BF04680C60704700007047000055
:100170000023002400250026103A28BF78C1FBD8B0
:10018000520728BF30C148BF0B607047662903F093
:100190008486002070471FB500F022FB0400002079
:1001A000002103F085FBE0601FBD10B510BD00F01D
:1001B00017FC1146FFF7EFFF02F044FB00F035FC9F
:1001C00003B4FFF7F2FF03BC00F078FC0948804756
:1001D00009480047FEE7FEE7FEE7FEE7FEE7FEE729
:1001E000FEE7FEE7FEE7FEE704480549054A064B41
:1001F0007047000025270008ED0000089801002046
:100200009807002098030020980300200FB41CB525
:10021000074B06AA7B4469460090059800F0C7FA90
:100220000020694600F0D6FA1CBC5DF814FB000003
:10023000BD0500002DE9F0474FF0000A894604464D
:10024000C0F820A02046E1688847002876D02528FD
:1002500006D0D4E901219047206A401C2062F1E7D2
:10026000E168204600258847C4F81CA00646002700
:10027000C4F818A02A2E09D0304603F011FB38B379
:1002800004EB8708303EC8F8186019E059F8041BE1
:10029000204604EB87029161E1688847012F0646FA
:1002A00018D1E069002820DA25F020051DE0D8F8F3
:1002B000180000EB800006EB40003038C8F818004A
:1002C0002046E1688847064603F0EAFA0028EED1A6
:1002D000012F0AD02E2E08D12046E16888477F1CC6
:1002E0000646022F45F02005C4DBA069002803DA8A
:1002F000404245F00105A061E80701D025F0100556
:10030000B6B1A6F14100192802D8203645F400659F
:100310004A463146204625604D46FFF737FF58B123
:10032000012806D0ED1D25F0070000F1080989E736
:1003300004E005F1040985E730468AE7206ABDE854
:10034000F08710B5431C02E010F8011B71B1810762
:10035000FAD14FF0013202C88C1A8C4314EAC21150
:10036000F9D0C01A0A0603D0C01E10BDC01A10BDB5
:100370000A0401D0801E10BD0902FCD0401E10BD31
:100380007047704770472DE9FF4F0C461E464FF0EF
:10039000FF378BB0D2E90001DDF860800A908A4611
:1003A000C1F30A5505B93D46002108464FF000004B
:1003B000BAF1000F00F4400005DA00EB80004FF4C2
:1003C000400101EA50004FEA9059B9F1010F00DDF8
:1003D000B9460A9850EA4A000ED044F61050A5F2E9
:1003E000FF3545432F14B8F1000F1ED07542291E6A
:1003F0001EDDC9F100021CE0B8F1010F4FF0000052
:1004000001D0302103E0F24305E02154401CB0420A
:10041000FBDB30460022002121540B99C1F80880F3
:10042000C1E900200FB0BDE8F08FBD1B6D1CDEE7F9
:100430004A4600DA694206A800F05CFA06AB93E887
:10044000070003AB83E8070050460A9902F04CFE10
:100450008DE80700A0F500501F3800900398002D8C
:100460000ADD42F21F014A460844002303A9039013
:10047000684603F0B5F809E0A0F500504A461F3879
:10048000002303A90390684603F0BFF88DE8070036
:100490000004000C03D04FF0FF30410800E010468C
:1004A000B8F1000F03D00022009215461EE0751E21
:1004B00005D400F099F9303262556D1EF9D5B34676
:1004C0000122084302D000227F1C04E0207830285B
:1004D00001D100227F1E002A099784D01DE0112D32
:1004E00007DA00F081F9303262556D1C50EA0102E2
:1004F000F5D1084302D00098C8B10EE00021681E73
:1005000005E0235C625C63542254401E491C814216
:10051000F7DBAB46A81B401E0990002004F80B0037
:100520000B98099AC0F80880C0E9002B7AE71126D9
:100530004FF0000857E72DE9F04F88460446D21DDA
:1005400022F0070191B0D1E90001CDE90A0103F0E1
:1005500093F902460B98C00F01D02D2007E02068C8
:10056000810701D52B2002E0202101EAC000032AE7
:10057000099001D0072A05DB03464146204600F0DA
:1005800079F90BE12078800601D5E06900E00620CA
:10059000B8F1650F814606D0B8F1660F18D0B8F1F2
:1005A000670F70D131E00020B9F1110F009001DB2D
:1005B000112301E009F101030AAA01A90CA8FFF720
:1005C000E2FEDDE90C70002609F10105834647E0F3
:1005D00001204B4600904FF000470AAA01A90CA841
:1005E000FFF7D1FEDDE90DB00C995D46002610B98C
:1005F00009F101000D18B9EB050003D4C0F1FF3675
:1006000009F10105A5EB09002BE0B9F1010F01DAB1
:100610004FF001090020B9F1110F0090484601DDAB
:10062000112300E003460AAA01A90CA8FFF7ABFEBC
:10063000DDE90C704D4600268346207800070AD479
:10064000AB4500DA5D4601A8012D04DD411911F822
:10065000011C302907D04F4502DA17F1040F04DAE4
:10066000012082460FE06D1EEEE7002F02DCED1B3D
:100670003E4403E0781CA84200DD7D1CB81B00F15D
:10068000010A4FF000472078000703D4AA4501DB98
:100690004FF0FF3A0021B7F1004F0DF143088DF8FC
:1006A000431024D002202B23002F01DA7F422D2378
:1006B0000A21021EA0F1010000DC5FB197FBF1FCF2
:1006C00097FBF1F201FB1C7C17460CF1300C08F88B
:1006D00001CDEEE7A8F1010003702188090501D5DD
:1006E000452100E06521A0F1010800F8011C0998EE
:1006F0000FA9A1EB0807FF1D00B10120411901EB73
:10070000EA70A1693844081A401EA0612078C0062A
:1007100002D42046AFF30080099828B1D4E9012122
:100720009047206A401C20622078C00622D52046CF
:10073000AFF300801EE0002E04DBB34502DD01A80C
:10074000805D00E03020D4E901219047206A401C00
:100750002062761CAAF101005FEA000A0AD100F0CB
:100760003FF8C0680168405CD4E901219047206AE5
:10077000401C2062281EA5F10105DCDC07E0D4E95D
:10078000012118F8010B9047206A401C2062381E96
:10079000A7F10107F3DC2046AFF30080032011B07E
:1007A00041E6000001694A1C02610878704700B503
:1007B0008FB0CDE901310021059105497944CDE99A
:1007C000031011466846FFF735FD0FB000BD00006D
:1007D000E5FFFFFF0A6802F8010B0A60704700009E
:1007E000004870477000002030B5B0F10A0271F186
:1007F00000034FEA900E4EEA817EB0EB0E0061EBF3
:1008000091014FEA101E4EEA017E10EB0E0041EB03
:1008100011114FEA102E4EEA016E10EB0E0041EB63
:1008200011214FEA104E4EEA014E10EB0E0041EB43
:100830001141401841F100014FEAD00040EA4170F7
:100840004FEAD1014FEA810444EA907410EB80052D
:1008500044EB01046D1944EB0404521BA3414FF017
:10086000000348BF0A3200D530BD401C41F10001F1
:1008700030BD00002DE9F0411F4604460326016803
:10088000072A01F4006004DB08B116A505E016A5EF
:1008900003E008B115A500E015A521F010002060C7
:1008A000A069C01EA0610FB1401EA0612046AFF339
:1008B00000804FB1D4E9012138469047206A401C9E
:1008C0002062C01C206206E0206AFAE7D4E9012118
:1008D00015F8010B9047761EF8D22046AFF3008042
:1008E000BDE8F0814E414E006E616E00494E4600FB
:1008F000696E66002DE9F047814616468AB0354894
:1009000078440DC88DE80D0032487844801C03AC53
:100910000DC884E80D0041F69B300844372190FB58
:10092000F1F290FBF1F5A5F1800501FB12041B3CEF
:1009300002D56442012000E00020DFF898A0804644
:100940000027FA44AAF1BE0A0EE0E0070AD03246B8
:10095000684607EB470101230AEB810102F055FECF
:100960008DE8070064107F1C002CEED1194F7F44E6
:10097000AE3F19E0E80715D007EB04100DF1180A97
:1009800090E80E008AE80E00C068F04201D1981984
:1009900008903246012306A903A802F036FE03ABF5
:1009A00083E807006D10641C002DE3D14FF00103B4
:1009B00032466946B8F1000F03A802D002F010FEDB
:1009C00001E002F022FEC9E90001C9F808200AB0DE
:1009D000BDE8F0871836000000487047500000203E
:1009E0007546FFF7F9FFAE4605006946534620F00D
:1009F0000700854618B020B5FFF7F6FBBDE820409C
:100A00004FF000064FF000074FF000084FF0000BCA
:100A1000AC46ACE8C009ACE8C009ACE8C009ACE839
:100A2000C00921F007018D46704710B50446AFF3A9
:100A300000802046BDE81040FFF7C2BB4FF0013CEC
:100A400050F8042B51F8043B9A4221D1A2EB0C033D
:100A5000934313EACC1317D150F8042B51F8043BFD
:100A60009A4215D1A2EB0C03934313EACC130BD19A
:100A700050F8042B51F8043B9A4209D1A2EB0C0325
:100A8000934313EACC13DBD04FF00000704700BF54
:100A9000D01A01BAB1FA81F101F0180122FA01F07D
:100AA000CB40DBB2C0B2C01AC1F120012CFA01F375
:100AB000D11A914311EAC311E6D1704701491820B8
:100AC000ABBEFEE72600020070470000FEE7000014
:100AD0002DE9F04F81B040F6004440F2B00640F2FC
:100AE00004194FF00008C4F20104C2F20006C2F279
:100AF00000094FF0010A002704E000BF0137082F6A
:100B0000AB4643D000F084FAB06100BF00F080FA39
:100B1000F06120464FF4007100F06EFA20B9D6E97A
:100B2000061002318142F1D8D9F80000C0F82480C3
:100B3000416A272908D8416A272905D8416A272907
:100B400002D8416A2829F3D320464FF4007100F0FF
:100B500053FA87F007010AFA01F14BEA0105002870
:100B600008BF2BEA010500F053FAB06100F050FA1B
:100B7000F06120464FF4007100F03EFA0028BDD02D
:100B8000D6E9061002318142F0D8B7E7E8B201B0E9
:100B9000BDE8F08F70B584B04FF4007040F60044AB
:100BA00000900120C4F2010401900220039000256E
:100BB00069462046029500F017F920464FF400716F
:100BC000002200F01FFA40F20416C2F2000630685C
:100BD00040F2135140F21452456200BF436A8B4207
:100BE00008D8436A8B4205D8436A8B4202D8436ACD
:100BF0009342F3D320464FF40071012200F002FA31
:100C000030680021416200BF416A1D2908D8416A4D
:100C10001D2905D8416A1D2902D8416A1E29F3D32E
:100C200001200025029069462046019500F0DCF87D
:100C300030684562416A272908D8416A272905D8C2
:100C4000416A272902D8416A2829F3D320464FF464
:100C5000007100F0D1F94FF00005B0B9306845627D
:100C6000416A4F2908D8416A4F2905D8416A4F295E
:100C700002D8416A5029F3D320464FF4007100F0A6
:100C8000BBF90546002818BF012500F0C1F940F264
:100C9000B006C2F20006B06100F0BAF9F061204679
:100CA0004FF4007100F0A8F920B1D6E90610023126
:100CB0008142F1D8284604B070BD000070470000A2
:100CC000014690F82100022816D10868D1E90FC327
:100CD000026822F00E020260026822F00102026045
:100CE000012000FA03F2CCF8042081F82100002052
:100CF000002281F820207047042088630120002210
:100D000081F820207047000090F82110022923D19B
:100D1000026840F2040C1168C4F2020C21F00E01CA
:100D2000116013682F21C4F202018A4223F00103EB
:100D3000136015DD3023C4F202039A421CD0442311
:100D4000C4F202039A421BD05823C4F202039A420F
:100D50001CD14FF4803321E00421816301207047CE
:100D60000823C4F202039A420ED01C23C4F20203E9
:100D70009A420BD1102311E04FF480730EE000BFB4
:100D80004FF480530AE000BF012307E00CF1680133
:100D90004FF080738A4208BF4FF480130121CCF8D2
:100DA000003080F82110416B0022002980F82020BB
:100DB00004BF0020704780B58847002080BD000038
:100DC000B0B5044600F024F9054640F24000C2F2F6
:100DD00000000078611C18BF044400BF00F018F93F
:100DE000401BA042FAD3B0BD2DE9F04F82B00E688F
:100DF000002E00F0FD8041F20042C4F20102042303
:100E000040F2004E904208BF03234FF6FF7CC4F22D
:100E1000010E009300240123C1F2100C4FF0000AD0
:100E20004FF000094BE000BF41F20002C4F20102A2
:100E3000009F904208BF022704F00C030F229A4043
:100E40002BEA020207FA03F34FEA9A051A4346F81F
:100E500025204E6840F20C45F202DEF8082054BF0F
:100E600022EA080242EA0802C4F20105CEF808208C
:100E70002A68B30254BF22EA080242EA08022A6042
:100E8000B303DEF8042054BF22EA080242EA080253
:100E9000F303CEF80420DEF800204FF0010354BF26
:100EA00022EA080242EA0802CEF800200E680AF19F
:100EB000010A36FA0AF204F1040400F0998003FAF8
:100EC0000AFB16EA0B08F1D04E68664512DC122EBA
:100ED00056D8DFE806F0350B4D4955555555555553
:100EE0005555555555555545510000BFD1F80C90F5
:100EF00046E000BF4FF6FF72C1F2210296420FDCBE
:100F00000022C1F2110296421AD00022C1F212024E
:100F1000964215D00022C1F22102964210D02FE055
:100F20000022C1F2220296420AD00022C1F231020E
:100F3000964205D00022C1F23202964220D100BF73
:100F40008A684AB1012A14BFC0F814B0C0F810B0C2
:100F50004FF0080914E000BF4FF0040910E000BF93
:100F6000CA6802F104090BE04FF0000908E000BF75
:100F7000CA6802F1080903E0CA6802F10C0900BF5F
:100F800002462646B8F5807F24BF0432203E17680B
:100F90000F25B54027EA050509FA06F63543156021
:100FA000CA79D2067FF582AF41F21803C4F2020378
:100FB0001A68AEF57E7642F001021A601A6802F0F5
:100FC00001020192019A2AF0030256F802B040F69B
:100FD0000002C4F20102904208D040F60042C4F27E
:100FE000010290427FF420AF012725E7002723E785
:100FF00002B0BDE8F08F00008068084018BF0120F3
:1010000070470000002A08BF090401617047000012
:1010100040F29410C2F200000068704740F24000B5
:1010200040F29411C2F20000C2F2000100780A6896
:10103000104408607047000080B542F20000C4F21E
:101040000200016841F010010160032000F08CF8FB
:101050000F2000F005F800F027F8002080BD000008
:1010600070B540F24006C2F2000640F24801327804
:10107000C2F200014FF47A730968B3FBF2F204463E
:10108000B1FBF2F1084600F085FB0F2C4FF0010593
:1010900008D838B94FF0FF3021460022002500F073
:1010A00037F87460284670BD82B041F21800C4F26F
:1010B00002000168022241F001010160016801F0B3
:1010C000010101910199416841F0805141604068FE
:1010D00000F08050009000980420C4F201000168E4
:1010E00062F31A61016002B070470000002848BF37
:1010F000704700F01F01012202FA01F11C2202EAEE
:10110000D0004EF20012CEF2000281507047000073
:1011100010B54EF60C5CCEF2000CDCF80030C3F3D8
:10112000022E8EF00704042C28BF0424BEF1030312
:101130004FF0FF3E0EFA04F438BF0023A14399405C
:101140000EFA03F39A43114300F00F0200F16043DB
:101150000901043A03F564436244002848BF02F1E0
:101160000C03197010BD00004EF60C51CEF20001B8
:101170000A684FF6FF031A4060F30A2242F08060CB
:1011800040F0FD7008607047002804BF01207047E0
:101190002DE9F04381B042F20008C4F2020804468F
:1011A000D8F800000D4600F0070088420CD2D8F8AD
:1011B000000020F007002843C8F80000D8F800001D
:1011C00000F00700A8426CD1206841F204098107B1
:1011D000C4F2020917D5410705D5D9F8001041F42A
:1011E000E061C9F80010010705D5D9F8001041F4F5
:1011F0006051C9F80010D9F80010A26821F0F00180
:101200001143C9F80010C00742D1D8F8000000F01F
:101210000700A8420CD9D8F8000020F007002843A6
:10122000C8F80000D8F8000000F00700A84238D144
:101230002068410707D5D9F80010E26821F4E06181
:101240001143C9F80010000708D5D9F8000021693A
:1012500020F4605040EAC100C9F80000D9F800202D
:1012600002F00C00082841F20020C0F27A004DD1B3
:1012700043F64E73C2F38341C0F60003595CD203B8
:1012800038D440F60010C0F23D0048433EE000BFB5
:10129000606859F8041C022808D0012826D1890367
:1012A00006D4012001B0BDE8F08300BF8901F8D564
:1012B000D9F8001021F003010843C9F80000FFF736
:1012C000A7FE064641F28837D9F80000616800F0B1
:1012D0000C00B0EB810F98D0FFF79AFE801BB8424C
:1012E000F2D9032001B0BDE8F08300BF8907D8D54B
:1012F000DEE700BFD9F8002043F64C73C2F340424A
:10130000C0F600039A5C4843B0FBF2F0D9F8001035
:1013100043F63472C1F30311C0F60002515C40F28F
:10132000480220FA01F140F24400C2F200000068D5
:10133000C2F200021160FFF793FE002001B0BDE889
:10134000F083000040F2480041F20401C2F20000C4
:10135000C4F202010068096843F64472C1F3022135
:10136000C0F60002515CC8407047000040F24800DF
:1013700041F20401C2F20000C4F2020100680968EF
:1013800043F64472C1F3C221C0F60002515CC8406A
:1013900070470000002804BF012070472DE9F0418C
:1013A00082B00446007841F20006C007C4F202068B
:1013B0000CD0706800F00C00042840F08180306888
:1013C000800303D56068002800F0468120788007FC
:1013D0001BD5706810F00C0F09D0706800F00C007D
:1013E000082840F087807068C00300F1838030686F
:1013F000800703D52069012840F02E81306861699B
:1014000020F0F80040EAC10030602078000713D4D3
:10141000207840072CD4E569002D00F01881706811
:1014200000F00C00082840F0A780012D40F0048156
:10143000012002B0BDE8F081A069002800F084809E
:101440000020C4F242200121C0F88014FFF7E0FD23
:10145000054600BF706A800700F1B280FFF7D8FD33
:10146000401B0228F6D9032002B0BDE8F08100BF7E
:10147000F0695FEAC00808D4F06940F08050F0617C
:10148000F06900F080500090009847F20007C4F225
:1014900000073868C00549D4386840F48070386067
:1014A000FFF7B6FD054600BF3868C0053ED4FFF71C
:1014B000AFFD401B6428F7D9032002B0BDE8F081DE
:1014C000706800F00C00082803D17068C0033FF575
:1014D00076AF61683068002900F00C81B1F5A02F6B
:1014E00000F00081B1F5803F40F01A8140F4803077
:1014F0001CE100BF2069002840F20000C4F2422035
:1015000000F0888001210160FFF782FD054600BFE1
:10151000306880073FF572AFFFF77AFD401B022865
:10152000F6D9032002B0BDE8F08100BFE168306A5F
:10153000002900F09D80052900F09280012940F0EB
:10154000AF8040F00100B1E00020C4F24220002151
:10155000C0F88014FFF75CFD054600BF706A800785
:101560007FF556AFFFF754FD401B0228F6D9032044
:1015700002B0BDE8F08100BF0027C4F2422700207E
:101580003866FFF745FD022D05460DD13068800114
:1015900040F1DE80FFF73CFD401B02284FF00300C6
:1015A000F4D902B0BDE8F081306880014FD5FFF773
:1015B0002FFD401B02284FF00300F5D9F1E700BFD3
:1015C00040F24800C2F20000006844F6D351C1F274
:1015D0006201A0FB0101480A019000BF00BF019811
:1015E000411E002801913FF413AF00BF0198411E36
:1015F000002801913FF40CAF00BF0198411E002864
:1016000001913FF405AF00BF0198411E00280191F0
:10161000E4D1FDE600210160FFF7FAFC054600BFBA
:10162000306880077FF5F1AEFFF7F2FC401B02281F
:101630004FF00300F4D9B4E77068216A00F48032F7
:101640008A4209D1616A00F47010884204D10020F6
:1016500002B0BDE8F08100BF012002B0BDE8F0811A
:1016600040F004003062306A40F001001EE000BF2C
:1016700020F001003062306A20F004003062FFF791
:10168000C7FC054641F28837306A800720D5FFF74E
:10169000BFFC401BB8424FF00300F5D981E700BF03
:1016A00020F001003062306A20F004003062FFF761
:1016B000AFFC054641F28837306A800708D4FFF74F
:1016C000A7FC401BB842F7D9032002B0BDE8F08167
:1016D000B8F1000F3FF59FAEF06920F08050F06147
:1016E00099E600BF40F480203060306840F48030DC
:1016F0001CE000BF20F480303060306820F480208F
:101700003060FFF785FC0546306880037FF55EAEEC
:10171000FFF77EFC401B64284FF00300F4D940E73C
:1017200020F480303060306820F480203060FFF793
:101730006FFC0546306880033FF548AEFFF768FC54
:10174000401B6428F6D9032002B0BDE8F08100BF39
:10175000206AB0F5803F05D17168A26821F400319C
:10176000114371607168626A21F474111143084376
:10177000706001203866FFF74BFC0446306880013A
:101780003FF565AFFFF744FC001B02284FF0030054
:10179000F4D906E7411E0020B0EB116F1CBF0120F9
:1017A00070474EF21002CEF2000251604EF6235105
:1017B000CEF20001F0230B7007219060116070479A
:1017C00090F83C20012A4FF0020236D010B580F884
:1017D0003D200268D2F804E0D2F808C00C682EF070
:1017E0007003234340F2FF74C4F20004A24253602A
:1017F0000ADCB2F1804F13D040F20043C4F2000380
:101800009A420DD011E000BF42F60043C4F201033A
:101810009A4205D040F60003C4F200039A4204D174
:1018200049682CF08003194391600121002280F85F
:101830003D1080F83C20BDE8104010467047000085
:10184000002804BF0120704710B590F83D1031B951
:10185000002180F83C10044600F070F82046022178
:1018600080F83D10016840F2FF740B68C4F2000478
:1018700042F6004CA142C4F2010C15DCB1F1804FDC
:101880001AD040F20042C4F20002914214D0A142A8
:1018900018DCB1F1804F1DD040F20042C4F20002CA
:1018A000914217D01AE000BF614505D040F6000212
:1018B000C4F200029142EAD1826823F0700313431C
:1018C000A142E6DD614505D040F60002C4F2000207
:1018D000914203D1026923F440731343846923F0D6
:1018E0008002D0F804E0C368224361450A60CB62FD
:1018F000C1F828E002D14269CCF8302001224A61C7
:101900000B69DB0703D00B6923F001030B6180F83F
:10191000462080F83E2080F83F2080F8402080F864
:10192000412080F8422080F8432080F8442080F84D
:10193000452080F83D20002010BD0000006842F6E0
:101940000041C4F20101884218BF704781B041F2E2
:101950001800C4F20200016841F4006101600068EF
:1019600000F400600090009801B0704790F83D10BE
:1019700001291CBF01207047022180F83D1000683A
:1019800040F2FF71C4F20001884209DCB0F1804FDF
:1019900012D040F20041C4F2000188420CD012E0A3
:1019A00042F60041C4F20101884205D040F6000130
:1019B000C4F20001884206D1816801F007010629BE
:1019C00004BF00207047016841F001010160002060
:1019D0007047000090F83C20012A4FF002026CD0C2
:1019E00080B580F83D20D0F800C04FF67772DCF863
:1019F000083023EA0202CCF808200B684F2B29DCC0
:101A00001F2B45DD202B46D0302B44D0402B40F0FF
:101A1000AF80D1F804E0C968DCF82030DCF8202081
:101A200022F00102CCF82020DCF8182022F0F0028D
:101A300042EA011123F00A0242EA0E02CCF8181021
:101A4000CCF82020DCF8081041F0470121F03001EB
:101A500028E000BF6F2B33DDB3F5005F74D0B3F522
:101A6000805F21D0702B40F08380D1E901E3C96809
:101A7000DCF8082043EA0E0322F47F4243EA012106
:101A80001143CCF80810DCF8081041F0770109E0A8
:101A90000BB1102B6CD1DCF8081021F07001194348
:101AA00041F00701CCF808100022012180F83D1018
:101AB000002180F83C10BDE880401046704700BF10
:101AC000502B21D0602B53D1D1F804E0C968DCF849
:101AD0002030DCF8202022F01002CCF82020DCF8A6
:101AE000182022F4704242EA013123F0A00242EAB7
:101AF0000E12CCF81810CCF82020DCF8081041F0B9
:101B0000670121F01001CDE7D1F804E0C968DCF8E5
:101B10002030DCF8202022F00102CCF82020DCF874
:101B2000182022F0F00242EA011123F00A0242EAF0
:101B30000E02CCF81810CCF82020DCF8081041F088
:101B4000570121F02001ADE7D1E901E3C968DCF8D4
:101B5000082043EA0E0322F47F4243EA01211143A5
:101B6000CCF80810DCF8081041F480419AE700BF77
:101B700001229AE77047000070470000B0B582B0BC
:101B800001680A68CC684B6902F02F05202D04F02B
:101B9000200505D125B102B0BDE8B04000F0CABDB6
:101BA0005FEA027C1EBF03F0010E04F4907313EB96
:101BB0000E0341D1036BD50618D5012B16D114F0B5
:101BC000100313D0002201920A6801924A68019220
:101BD000019A496949064BD4818DC28DC38D002B72
:101BE00018BF914240F0F48102B0B0BD13062DD56C
:101BF00014F080032AD090F84120212AF4D1826881
:101C0000B2F5805F03D10269002A00F06782026AA0
:101C1000531C036212784A60C28C013A1304C284D6
:101C2000E2D1C86820F08000C860C86840F0400079
:101C3000C86002B0B0BD00BFD30718BF14F48073F2
:101C400040F0D080530700F1D380D8E05206CBD5C6
:101C500014F04002C8D0CA6822F04002CA602021B5
:101C600080F8411002B0BDE8B04000F04DBD00BFAB
:101C7000C16B0A68526893B2002BB5D0858DAB4218
:101C8000B2D2C2858969202900F0A180016851E89B
:101C9000031F026821F4807142E80313DBB101687D
:101CA00051E8031F026821F4807142E8031393B1E5
:101CB000016851E8031F026821F4807142E80313B0
:101CC0004BB1016851E8031F026821F4807142E8BA
:101CD0000313002BDAD1016851E8051F026821F0D7
:101CE000010142E80513C3B3016851E8051F02680A
:101CF00021F0010142E805137BB3016851E8051F9B
:101D0000026821F0010142E8051333B3016851E88C
:101D1000051F026821F0010142E80513002BDAD10A
:101D20001BE000BF016851E8051F026821F0400177
:101D300042E80513DBB1016851E8051F026821F094
:101D4000400142E8051393B1016851E8051F02689C
:101D500021F0400142E805134BB1016851E8051F2D
:101D6000026821F0400142E80513002BDAD120215E
:101D700080F8421000210163016851E8031F0268E6
:101D800021F0100142E80313DBB1016851E8031FA1
:101D9000026821F0100142E8031393B1016851E891
:101DA000031F026821F0100142E803134BB10168E0
:101DB00051E8031F026821F0100142E80313002BD1
:101DC000DAD1C16B04460846FEF77AFF20460221AD
:101DD0004163818DC28D891A89B202B0BDE8B040DD
:101DE000FFF7C8BE436C43F001034364530706D5B5
:101DF000BEF1000F03D0436C43F00203436493072A
:101E000006D5BEF1000F03D0436C43F004034364D6
:101E1000BCF1000F06D55EEA050303D0436C43F026
:101E200008034364436C002B3FF4DEAE920605D5F5
:101E300025B1044600F07EFC216820464969426CC9
:101E400001F0400102F00802891800F0B98000BFDB
:101E5000016851E8031F026821F4907142E80313FE
:101E6000BBB3016851E8031F026821F4907142E896
:101E7000031373B3016851E8031F026821F49071E2
:101E800042E803132BB3016851E8031F026821F4F1
:101E9000907142E80313002BDAD11AE0016851E88F
:101EA000051F026821F0010142E80513DBB101685A
:101EB00051E8051F026821F0010142E8051393B1C2
:101EC000016851E8051F026821F0010142E805138D
:101ED0004BB1016851E8051F026821F0010142E899
:101EE0000513002BDAD1016B012924D1016851E8D7
:101EF000031F026821F0100142E80313DBB10168FF
:101F000051E8031F026821F0100142E8031393B166
:101F1000016851E8031F026821F0100142E8031331
:101F20004BB1016851E8031F026821F0100142E83B
:101F30000313002BDAD1202180F842100021016325
:101F400001684969490640F1C380016851E8051FED
:101F5000026821F0400142E80513DBB1016851E855
:101F6000051F026821F0400142E8051393B10168A2
:101F700051E8051F026821F0400142E805134BB10A
:101F8000016851E8051F026821F0400142E805138D
:101F9000002BDAD1C16B002900F09A8042F229723D
:101FA000C0F60002044608464A63FEF7ADFE00286C
:101FB0003FF41AAEE06B416B02B0BDE8B040084799
:101FC0000446FFF7D9FD0020606402B0B0BD00BF39
:101FD000891A00BF026852E8032F036822F4907246
:101FE00043E80325BDB3026852E8032F036822F4D7
:101FF000907243E8032575B3026852E8032F036823
:1020000022F4907243E803252DB3026852E8032FAF
:10201000036822F4907243E80325002DDAD11AE018
:10202000026852E8052F036822F0010243E8052503
:10203000DDB1026852E8052F036822F0010243E88F
:10204000052595B1026852E8052F036822F00102C8
:1020500043E805254DB1026852E8052F036822F0D8
:10206000010243E80525002DDAD1202280F8422024
:1020700000220263026852E8032F036822F0100274
:1020800043E80325DDB1026852E8032F036822F01C
:10209000100243E8032595B1026852E8032F036854
:1020A00022F0100243E803254DB1026852E8032FE5
:1020B000036822F0100243E80325002DDAD1022242
:1020C00089B2426302B0BDE8B040FFF753BD00BF24
:1020D00002B0BDE8B040FFF74FBD00BF026A32F862
:1020E000023B6FF35F234B60026295E5002804BF5B
:1020F0000120704710B5044690F8410028B900202F
:1021000084F84000204600F063F8242084F8410061
:102110002068D4E90212C36823F40053C360036942
:1021200023F440531A430261D4E904231143C268E3
:10213000194341F20C639A431143C1604169A2699A
:1021400021F44071114343F60002C4F201029042AF
:10215000416103D0FFF7F6F802E000BFFFF706F990
:10216000D4E90023192148439900B0FBF1F048F26B
:102170001F5CC5F2EB1CA0FB0C314FF69C734909A8
:10218000C0F6FF7301FB0300322303EB0010A0FB3A
:102190000C03F02000EA531000EB0110C3F34311CD
:1021A000084490601069202120F49040106150692B
:1021B00020F02A005061D06840F40050D060002028
:1021C000606484F8411084F84210606310BD000020
:1021D00070B586B040F60004C4F20104006804F54E
:1021E0004051002688420596CDE90366029601D04B
:1021F00006B070BD41F21800C4F20200016802ADE1
:1022000041F480410160016801F48041019101992C
:10221000016841F0040101600068294600F00400F3
:10222000019001984FF40070029002200390032067
:1022300005902046FEF7D8FD4FF48060CDE90206F8
:10224000204629460496FEF7CFFD252000210022D6
:10225000FEF75EFF2520FEF749FF06B070BD0000C7
:102260002DE9F04381B0044690F84200202809D1BE
:10227000884600294FF0010018BF002A06D101B09E
:10228000BDE8F083022001B0BDE8F08300202221E8
:102290001D46606484F8421020631646FEF7B8FEBF
:1022A000A685E685A1680746B1F5805F02D1206961
:1022B000002851D046464FF00008E08D00284FD04E
:1022C00005F101090CE000BF406800266FF35F20B4
:1022D00028F8020BE08D0138E085E08D00283FD022
:1022E00020680168890617D4B9F1000F22D0002DAB
:1022F00000F0CA80FEF78CFEC01BA84200F2BC8032
:102300002068C168490744BF01685FEA01712FD4A2
:1023100001688906EED500BF002ED5D0A168B1F5C1
:10232000805F15D009B9216991B1406800F07F0044
:102330000FE000BF01688906EED4016889065CBF22
:1023400001685FEA8161E7D401688906F2D5E3E7B5
:10235000406806F8010BBDE70026E08D0028AFD1EC
:102360000020202184F8421001B0BDE8F08300BFB6
:10237000002100910168009140680090009800BF22
:10238000206850E8030F216820F4907041E80302B0
:10239000BAB3206850E8030F216820F4907041E838
:1023A000030272B3206850E8030F216820F4907094
:1023B00041E803022AB3206850E8030F216820F4A3
:1023C000907041E80302002ADAD11AE0206850E850
:1023D000050F216820F0010041E80502DAB120680C
:1023E00050E8050F216820F0010041E8050292B194
:1023F000206850E8050F216820F0010041E805023F
:102400004AB1206850E8050F216820F0010041E83A
:102410000502002ADAD1206B012824D1206850E877
:10242000030F216820F0100041E80302DAB12068B0
:1024300050E8030F216820F0100041E8030292B138
:10244000206850E8030F216820F0100041E80302E3
:102450004AB1206850E8030F216820F0100041E8DD
:102460000302002ADAD1202084F84200002008214B
:102470002063616484F840000320202184F8421026
:1024800001B0BDE8F08300BFFEF7C2FDF4E7000035
:1024900090F84230202B07D100294FF0010318BFDC
:1024A000002A05D11846704702231846704700BF1E
:1024B00000230363816222218285C285436480F800
:1024C00042100169006819B1C16841F48071C160AE
:1024D000416941F001014161C16841F02001C160E1
:1024E0001846704740F24C11C2F2000100680968BA
:1024F000884218BF704710B582B040F24C14C2F247
:10250000000410A120461222642300F033F80DF1DC
:102510000601204601224FF0FF33FFF7A1FE0FA175
:1025200020461322642300F025F840F2B000C2F2E6
:102530000000811D20460122FFF7AAFF02B0BDE87E
:10254000104070470D0A5761697420666F722063EE
:102550006F6D6D616E640D0A000000000D0A436F1F
:102560006D6D616E642072656365697665640D0AE0
:10257000000000002DE9F04381B0044690F84100CE
:10258000202809D100294FF0010018BF002A07D1E7
:1025900001B0BDE8F08300BF022001B0BDE8F083C8
:1025A0000020606421201D460E4684F84100174635
:1025B000FEF72EFDA784E784A1688146B1F5805F10
:1025C00002D1206900285DD037460020E28C2168C6
:1025D000002A5DD06A1C24D0002D4AD0804600BF5E
:1025E0000868000608D4FEF713FDA0EB0900A84216
:1025F0007AD82168C868F3E717B117F8010B04E02F
:1026000038F8020B00276FF35F204860E08C013838
:10261000E084E08C0028E3D13AE000BF0A681206AB
:1026200009D40A68120606D40A6812065CBF0A6852
:102630005FEA0262F2D51FB117F8012B05E000BF77
:1026400030F8022B00276FF35F224A60E28C013AD8
:10265000E284E28C002AE4D11AE000BF30F8022BB9
:1026600000276FF35F224A60E28C013AE284E28C39
:1026700072B10A68120635D5002FEFD017F8012B7A
:10268000F1E700BF00273046E28C2168002AA1D183
:10269000086840061ED42DB3681C14D10868400693
:1026A0002AD40868400627D40868400624D408685D
:1026B00040064FF00000F1D50DE000BF2068C16872
:1026C0000068400618D4FEF7A3FCA0EB0900A8425E
:1026D000F4D909E00020202184F8411001B0BDE8C0
:1026E000F08300BFFEF794FC0320202184F8411002
:1026F00001B0BDE8F08300BF0020202184F8411024
:1027000001B0BDE8F083000070470000FEE7000064
:10271000FEE70000FEE70000704700007047000081
:10272000FEF77CBC70470000406A0021C185C1846F
:10273000FFF722BA81B090F84210222921D1836894
:102740000246B3F5805F09D152F8281F52F8183CB1
:10275000002B63D003685B680AE000BF52F8281FB3
:1027600013B90369002BF5D003685B6803F07F039E
:102770000B70116801311160C18D01390A04C185E6
:1027800002D001B0704700BF0168CA6822F0200281
:10279000CA60CA6822F48072CA604A6922F00102E3
:1027A0004A61202180F8421000214163026B012A16
:1027B0003CD10163016851E8031F026821F0100158
:1027C00042E80313DBB1016851E8031F026821F0FE
:1027D000100142E8031393B1016851E8031F026836
:1027E00021F0100142E803134BB1016851E8031FC7
:1027F000026821F0100142E80313002BDAD10168CE
:102800000A68D20606D5002200920A68009249683A
:1028100000910099818D01B0FFF7ACB90268526850
:102820006FF35F2221F8022B8162A5E701B0FFF769
:1028300059BE000040F24C10C2F20000FFF79EB9F2
:10284000FEE7000094B0FEF7F7FB00240120CDE97D
:102850000F44CDE90D440A900E904FF4E0104FF470
:102860008031022513900AA8CDE90B14CDE911514E
:10287000FEF790FD20B1EFF3108072B6FEE700BFC7
:102880000F20CDE904054FF48060CDE9070404A8CA
:1028900002210694FEF778FC20B1EFF3108072B6A7
:1028A000FEE700BF002441F21800CDE90C44CDE959
:1028B0000A44C4F20200016840F6000841F0200119
:1028C00001600168C4F2010801F02001049104993B
:1028D0000168002241F0040101600168FE2601F058
:1028E000040104910499016841F008010160006845
:1028F000FE2100F00800049004984046FEF782FB99
:1029000008F58065284640F60361002240F6036919
:10291000FEF778FB0A960AAE4FF0010A02274046FE
:102920003146CDE90BA40D97FEF75EFA28463146F5
:10293000CDE90A9ACDE90C470395FEF755FA40F226
:10294000041008F51051C2F200004FF6FF730D9409
:10295000CDE90B44CDE90444472280E81600C0E9E4
:102960000334C0E90544FEF76BFF28B1EFF3108094
:1029700072B600BFFEE700BF4FF480500A9040F2ED
:102980000410C2F200000AA9FFF724F820B1EFF307
:10299000108072B6FEE700BF40F20410C2F20000E1
:1029A00004A9FEF70DFF28B1EFF3108072B600BF47
:1029B000FEE700BF40F24C1008F54051C2F20000A3
:1029C00000230C274FF4E13280E80E00C0E9033306
:1029D000C0E90573C361FFF789FB28B1EFF31080ED
:1029E00072B600BFFEE700BF40F20410C2F2000062
:1029F000FEF7BCFF40F24C14C2F200042046FFF781
:102A000075FB40F2B005C2F20005A91D2046012267
:102A1000FFF73EFD05F1200040F2000B002400907E
:102A200041F27B49C2F2000BC4F220140120019054
:102A300016E000BF039840F602410022FEF7E2FADA
:102A4000404640210022FEF7DDFA019880F00100A7
:102A500001904FF47A70FEF7B3F90024C4F2201409
:102A6000FEF798F800285CD0FEF732F840F2B00587
:102A7000C2F200052870FEF72BF86870FEF728F800
:102A8000A870FEF725F8E870FEF722F82F7895F881
:102A900001A095F9022001462871E8780AEB0703A6
:102AA00013440344DEB28E426B713AD1B2F1FF3F60
:102AB00006DDD1B240EA012001F082F8214604E0AF
:102AC00001F096F80021CCF2201100F09BFF40F2BB
:102AD000B005C2F2000521460646E86001F09CF808
:102AE00001F052F8002128813046C4F2101101F0A3
:102AF00093F80021C4F2A00100F084FF4FF084415C
:102B000000F01EFF28614AEA072001F059F821462B
:102B100000F078FF2146686101F07EF801F034F89A
:102B200068814FF47A70FEF74BF90198C00700F006
:102B3000618140F2B000C2F20000C06800F0D4FE33
:102B4000009C02460B4620460FF28451FDF75EFBC7
:102B50002046FDF7F6FB82B240F24C10C2F20000B4
:102B600021464FF0FF33FFF705FD40F2F51A4CF612
:102B7000CD4441F69A1600BF40F2B000C2F2000008
:102B80000089BBF80230810801FB09F581B261437D
:102B9000C90C01FB06F2120C02EB8202A1EB42020D
:102BA00001EB8101A0EB4100BBF8001094B2BBF82F
:102BB0000420039E19431FFA80F911433046002276
:102BC000FEF720FA404640210022FEF71BFA43F6AA
:102BD0005E70C5F34745C0F60000475DDBF8240092
:102BE000BBF8141007F00102FEF70CFADBF828001E
:102BF000BBF81610C7F34002FEF704FADBF82C000E
:102C0000BBF81810C7F38002FEF7FCF9DBF83000C0
:102C1000BBF81A10C7F3C002FEF7F4F9DBF8340072
:102C2000BBF81C10C7F30012FEF7ECF9DBF8380014
:102C3000BBF81E10C7F340120127FEF7E3F983200B
:102C400020FA05F2DBF83C00BBF8201027EA02026C
:102C5000FEF7D8F9DBF80800BBF800100122FEF7F8
:102C6000D1F90120FEF7ACF8BBF80000BBF8021068
:102C7000BBF80420084340EA020130460022FEF778
:102C8000C1F9404640210022FEF7BCF943F65E77C9
:102C9000C0F600073D5DDBF82400BBF8141005F01A
:102CA0000102FEF7AFF9DBF82800BBF81610C5F3F8
:102CB0004002FEF7A7F9DBF82C00BBF81810C5F3AB
:102CC0008002FEF79FF9DBF83000BBF81A10C5F35D
:102CD000C002FEF797F9DBF83400BBF81C10C5F30F
:102CE0000012FEF78FF9DBF83800BBF81E10C5F3B1
:102CF0004012FEF787F9832525FA04F2DBF83C0041
:102D0000BBF82010012323EA0202FEF77BF9DBF86F
:102D10000C00BBF802100122FEF774F94046402176
:102D20000122FEF76FF90120FEF74AF8BBF8000018
:102D3000BBF80210BBF80420084340EA0201304609
:102D40000022FEF75FF9404640210022FEF75AF9C3
:102D500017F80940DBF82400BBF8141004F0010256
:102D6000FEF750F9DBF82800BBF81610C4F3400258
:102D7000FEF748F9DBF82C00BBF81810C4F380020A
:102D8000FEF740F9DBF83000BBF81A10C4F3C002BC
:102D9000FEF738F9DBF83400BBF81C10C4F300125E
:102DA000FEF730F9DBF83800BBF81E10C4F3401210
:102DB000FEF728F925FA09F2DBF83C00BBF82010F1
:102DC000012323EA020241F69A164CF6CD4441F261
:102DD0007B49FEF717F9DBF81000BBF8041001225D
:102DE000FEF710F90120FDF7EBFFBAF1010A7FF4BD
:102DF000C3AE1FE640F2B000C2F20000406900F02E
:102E000073FD009C02460B462046ACA1FDF7FEF97F
:102E10002046FDF796FA82B240F24C10C2F2000052
:102E200021464FF0FF33FFF7A5FB40F2F5104CF6BB
:102E3000CD4541F69A1600BF029040F2B000C2F2B2
:102E400000004089BBF80230810801FB09F481B21F
:102E50006943C90C01FB06F2120C02EB8202A1EBE2
:102E6000420201EB8101A0EB4100BBF8001096B2D9
:102E7000BBF80420DDF80CA0194387B2114350467B
:102E80000022FEF7BFF8404640210022FEF7BAF8C4
:102E900043F65E70C4F34744C0F60000055D81460A
:102EA000DBF82400BBF8141005F00102FEF7AAF8C5
:102EB000DBF82800BBF81610C5F34002FEF7A2F8B5
:102EC000DBF82C00BBF81810C5F38002FEF79AF867
:102ED000DBF83000BBF81A10C5F3C002FEF792F819
:102EE000DBF83400BBF81C10C5F30012FEF78AF8BB
:102EF000DBF83800BBF81E10C5F34012FEF782F86D
:102F0000832020FA04F2DBF83C00BBF820100123F8
:102F100023EA02028325FEF775F8DBF80800BBF808
:102F200000100122FEF76EF80120FDF749FFBBF803
:102F30000000BBF80210BBF80420084340EA02017D
:102F400050460022FEF75EF8404640210022FEF780
:102F500059F819F80640DBF82400BBF8141004F007
:102F60000102FEF74FF8DBF82800BBF81610C4F397
:102F70004002FEF747F8DBF82C00BBF81810C4F34A
:102F80008002FEF73FF8DBF83000BBF81A10C4F3FC
:102F9000C002FEF737F8DBF83400BBF81C10C4F3AE
:102FA0000012FEF72FF8DBF83800BBF81E10C4F350
:102FB0004012FEF727F825FA06F2DBF83C00BBF8D2
:102FC0002010012323EA020241F69A164CF6CD4561
:102FD00041F27B49FEF716F8DBF80C00BBF8021053
:102FE0000122FEF70FF8404640210122FEF70AF8C1
:102FF0000120FDF7E5FEBBF80000BBF80210BBF8AE
:103000000420084340EA020150460022FDF7FAFF7F
:10301000404640210022FDF7F5FF43F65E70C0F602
:103020000000C45DDBF82400BBF8141004F00102BA
:10303000FDF7E8FFDBF82800BBF81610C4F34002E8
:10304000FDF7E0FFDBF82C00BBF81810C4F380029A
:10305000FDF7D8FFDBF83000BBF81A10C4F3C0024C
:10306000FDF7D0FFDBF83400BBF81C10C4F30012EE
:10307000FDF7C8FFDBF83800BBF81E10C4F34012A0
:10308000FDF7C0FF832020FA07F20123DBF83C00A4
:10309000BBF8201023EA0202FDF7B4FFDBF81000B2
:1030A000BBF804100122FDF7ADFF0120FDF788FEFB
:1030B000029801387FF4C0AEBCE400BF48756D696A
:1030C000646974793A20252E306625250D0A0000A2
:1030D00054656D70657261747572653A20252E3184
:1030E00066430D0A000000005FEA400C08BF91F043
:1030F000000F4FEA8C234FEAC12243EA51514FEAB5
:103100001C5018BF00F5F0404FEA300018BF41F0E6
:1031100000415FEA6C5C00F02980BCF1FF3F08BF12
:1031200040F080407047130C06BF12044FF0100CA3
:103130004FF0000C130E04BF12020CF1080C130F19
:1031400004BF12010CF1040C930F04BF92000CF1A8
:10315000020CD30F04BF52000CF1010C11464FF0CA
:103160000002A0F11F00A0EB0C00704711F0004F0F
:1031700008BF704731F000413FF4D5AF0B0C06BFDC
:1031800009044FF0100C4FF0000C0B0E04BF0902A5
:103190000CF1080C0B0F04BF09010CF1040C8B0F90
:1031A00004BF89000CF1020CCB0F04BF49000CF1E5
:1031B000010CCCF1200322FA03F341EA030102FAE5
:1031C0000CF2A0EB0C0000F10100704723F07F47E8
:1031D00020F07F4C80EA030000F00040ACEB0703D6
:1031E00003F57C5303F1FF032DE9804909B44FEA4D
:1031F000144324EA03484FEA154B25EA0B4E0FF21D
:10320000042606EB13273E7803FB0667C7F5000785
:1032100007FB06F64FEAD64606F102064FEA543798
:1032200007FB066CCCF1005C4FEA1C472CEA074C0C
:103230000CFB06F507FB06F404EB15464FEA961661
:1032400049085FEA320234BF00204FF000404FEAE5
:10325000D13706FB07FC4FEA1C4C0CFB0BF7D21BCB
:1032600003FB0CF761EB07010CFB0EF7B0EB07401B
:1032700072EB17420CFB08F734BFA2EB0742B2EB2C
:10328000074261EB17414FEA0C444FEA910706FBF6
:1032900007FC4FEA1C4C0CFB0BF7B0EBC74072EB82
:1032A000573203FB0CF734BFA2EBC742B2EBC74265
:1032B00061EB57310CFB0EF7B0EBC70072EB5772A6
:1032C0000CFB08F734BFA2EBC702B2EBC70261EBFD
:1032D00057714FEA816141EA92114FEA826242EAF4
:1032E00090124FEA806004EBCC04039F4FEAD13781
:1032F00006FB07FC4FEA1C4C0CFB0BF7D21B03FB35
:103300000CF761EB07010CFB0EF7B0EB074072EB1B
:1033100017420CFB08F734BFA2EB0742B2EB07429F
:1033200061EB17414FEA8C5504EB9C244FEA91075F
:1033300006FB07FC4FEA1C4C0CFB0BF7B0EBC7403D
:1033400072EB573203FB0CF734BFA2EBC742B2EB70
:10335000C74261EB57310CFB0EF7B0EBC70072EBC5
:1033600057720CFB08F734BFA2EBC702B2EBC702DF
:1033700061EB57714FEA816141EA92114FEA826233
:1033800042EA90124FEA806015EB4C2544F10004AC
:103390004FEAD13706FB07FC4FEA1C4C0CFB0BF73E
:1033A000D21B03FB0CF761EB07010CFB0EF7B0EB34
:1033B000074072EB17420CFB08F734BFA2EB074241
:1033C000B2EB074261EB17414FEA813141EA92418A
:1033D0004FEA823242EA90424FEA80304FEA0C765E
:1033E00015EB1C1544F1000448EA03434EEA0B4870
:1033F0004FF0000EB2EB080C71EB030724BF6246DE
:1034000039464EEB0E0E4FF0000B00185241494169
:103410004BEB0B0BB2EB080C71EB03077BF1000BD2
:1034200024BF624639464EEB0E0E4FF0000B0018DB
:10343000524149414BEB0B0BB2EB080C71EB03070C
:103440007BF1000B24BF624639464EEB0E0E51EA6B
:10345000020718BF46F0010616EB0E7655F1000282
:1034600054F1000103D5BDE88901BDE80088BDE83D
:103470008901BDE80048B619524141EB0101A3F1B1
:103480000103704780807F7E7D7C7B7A79787776B8
:1034900076757473727171706F6E6E6D6C6C6B6A31
:1034A0006A696868676666656464636362616160CF
:1034B000605F5F5E5E5D5D5C5C5B5B5A5A5959584C
:1034C00058575756565555555454535352525251B6
:1034D000515050504F4F4F4E4E4D4D4D4C4C4C4B0C
:1034E0004B4B4A4A4A494949484848474747474653
:1034F000464645454544444444434343434242428F
:10350000424141419C46002B30D477002BD04FEAFA
:1035100037071CB503B44FF010004FF01001BAF19B
:10352000000F06D0BCF1000FDCBF40F0080040F0F7
:1035300008014FF000000FBCBDE810400BF1010B7B
:10354000BBF1010F08BF5FEA170722BF12F10102AA
:1035500011F101014FF0004143F1000300F0004080
:1035600043EA00007047F9D35708D0E746EA064619
:103570004FEA164613F1400F1FDD13F1200FDFBF96
:1035800016430A46002120335B42BED0C3F1200718
:1035900046EA06464FEA164602FA07F746EA0706E3
:1035A00022FA03F2C3F1200701FA07F742EA070201
:1035B00021FA03F14FF00003A7E746EA020646EAC4
:1035C00006464FEA164646EA0106BCBF46EA0646EC
:1035D000360C4FF000034FF000024FF0000194E76B
:1035E0002DE9804C70B49A46934691E8380007C89C
:1035F00031EA400C48BF34EA430C03D5FFF7E6FD3F
:10360000FFF780FFF0BCBDE8008C2DE9804C70B462
:103610009A46934691E8380007C810F0804F08BFDB
:1036200013F0804F03D100F005F8FFF76BFFF0BCFB
:10363000BDE8008C20F07F4723F07F4C80EA030038
:1036400000F0004007EB0C03A3F57C53A3F1FE034D
:1036500092F0000F00F0B38095F0000F00F077803B
:103660002DE901494FEA114021EA00484FEA14468A
:1036700024EA064700FB06FC08FB06F607FB08F8F1
:1036800018EB06484CEB164C00FB07F718EB074805
:103690004CEB17404FEA124B22EA0B4E4FEA15460D
:1036A00025EA06470BFB06FC0EFB06F607FB0EFEA3
:1036B0001EEB064E4CEB164C0BFB07F71EEB074EB2
:1036C0004CEB174B18EB0B0840F1000018EB0E0BFE
:1036D00058EB000840F100008F1A4FF000014FF046
:1036E00000063CBFC943661B14BFB5EB040C0021A8
:1036F0003CBFC943F61B4FEA174427EA04454FEA8B
:103700001C472CEA074C04FB076205FB07F70CFB80
:1037100005F616EB074642EB174204FB0CFC16EBD2
:103720000C4642EB1C421BEB060658EB02024141E1
:103730004EEA8E0E46EA9E0601D5BDE80189B6190D
:10374000524141EB0101A3F10103BDE801894FEAB8
:10375000144524EA05464FEA114721EA074C05FBC8
:1037600007F406FB07F70CFB06F111EB074144EBEE
:10377000174405FB0CFC11EB0C4144EB1C444FEAD5
:10378000124722EA074C05FB07F206FB07F70CFB82
:1037900006F616EB074642EB174205FB0CFC16EB50
:1037A0000C4642EB1C456A1854F1000148BF7047B3
:1037B000B619524141EB0101A3F10103704795F0A5
:1037C000000F37D04FEA114221EA02464FEA144770
:1037D00024EA074C02FB07F106FB07F70CFB06F493
:1037E00014EB074441EB174102FB0CFC14EB0C44B7
:1037F00041EB1C414FEA154725EA074C02FB07F550
:1038000006FB07F70CFB06F616EB074645EB1745DC
:1038100002FB0CFC16EB0C4645EB1C42121951F155
:10382000000148BF7047B619524141EB0101A3F1B5
:10383000010370474FEA144524EA05464FEA114751
:1038400021EA074C05FB07F106FB07F70CFB06F224
:1038500012EB074241EB174105FB0CFC12EB0C424B
:1038600051EB1C414FF0000648BF7047921841EBE6
:103870000101A3F101037047490050EAC12018BFBC
:1038800004204A0D18BF40F0010040F2FF72B2EB75
:10389000515F08BF40F00200012808BF05207047B3
:1038A00030380A2801D201207047002070470000FC
:1038B00010B500290AD00878002807D005487844B8
:1038C000FDF7BCF8002801D0002010BD0248784464
:1038D00010BD0000CA060000C20600000808A0F5DE
:1038E00000114FEA3101704743004FEAD30C4FEA11
:1038F0003C0C43401FBF40070CF1605113F0FE4FDA
:1039000070471CF0006F03D10CF00041002070479D
:103910000CF0004343EA507040EACC0010B500F0D0
:10392000FCF900BF000000924FEA0001FFF7D6BF8C
:103930004FF00041A1F500214FF00000704700005A
:1039400090EA010F48BF81F0004100F13882421A2D
:103950003CBF801A89184FEAD052A2EBD1534FF0E6
:103960007F4C1CEA410F18BF9CEA026F00F03B80BD
:103970004FF0004C4CEA00204CEA012121FA03FCF4
:1039800010EB0C0C1ED202F1FF325FEA1C2040EB60
:10399000C25038BF70471CF07F0F4FEA400C18BF71
:1039A000BCF17F4F38BF7047C3F12003994008BF77
:1039B00020F00100BCF17F4F38BF7047A0F1C0403C
:1039C00000F0F1B94FEA3C00000A40EBC25028BFBA
:1039D0001CF0FF0F4FEA400CE6D018BFBCF17F4F40
:1039E00038BF7047EAE79CEA026F05D010EA5C0F27
:1039F00008BF00F00040704710B500F08EF900BF1E
:103A000064FBBE3E4FF47F0C1CEAD0121EBF1CEAC2
:103A1000D11392EA0C0F93EA0C0F00F0858090EA24
:103A2000010F48BF42F4807240F4000C41F40000E2
:103A30002CF07F4120F07F4000B5A2EB03028142D1
:103A40000FF2081CACEB504E9EF800E0C0F10000F5
:103A50004FEA4E0E00FB0EFC38BF49004FEA2C1C0B
:103A60000CFB0EF34FEACE1E0EEB635E4FEA112CF9
:103A70000EFB0CFC4FEAC1214FEA1C5300FB031163
:103A800002F5FA024FEA112C0EFB0CFC4FEA013151
:103A90004FEADC4C00FB0C1142EB2242C14228BF32
:103AA00009184CEB03335DF804EB10EB410143EBD9
:103AB000C250B2F57C0F38BF704729D512F0F00F15
:103AC0001CBF00F1C04000F00040704700818283BD
:103AD0008485868788898B8C8D8E8F91929395961D
:103AE00097999A9C9D9FA0A2A3A5A7A8AAACAEB0A7
:103AF000B2B3B5B7B9BCBEC0C2C5C7C9CCCED1D4AC
:103B0000D7D9DCDFE2E6E9ECF0F3F7FAFE000000DB
:103B10004FEA400C0CF1807CBCF17E4F28BF70470F
:103B2000B0F1C04000F03FB90CEAD11390EA010FA8
:103B300048BF42F48072624538BF634507D213F430
:103B40007F0F16D080EA010000F00040704710B5EA
:103B500000F0E3F8097EFC3E00F005B880EA0100C1
:103B600000F00040704780EA010000F0004000F0E3
:103B70001AB912F47F0F04BF0248704780EA0100AF
:103B800000F011B90000C07F41000B0ED3F19E027E
:103B900008D950F400034FEA032323FA02F048BF88
:103BA0004042704710B500F0B8F800BF4992248039
:103BB000002070476FF0004282EA2000704700004A
:103BC00010F0004148BF4042B0FA80F310FA03F20F
:103BD000C3F19D030BD051EAC35101EB12205306F0
:103BE00038BF704700F1010008BF20F001007047A6
:103BF000B0FA80F310FA03F2C3F19D030AD0D9059D
:103C000001EB1220530638BF704700F1010008BFD6
:103C100020F00100704700004FF47F0C1CEAD01226
:103C20001EBF1CEAD11392EA0C0F93EA0C0F00F0AE
:103C3000478090EA010F48BF42F480724FF0004C79
:103C40004CEA00204CEA012102EB0302A0FB011325
:103C5000A2F50002002918BF43F001035B0028BF52
:103C60004FEA330342EB22425FEA132C4CEBC25083
:103C70002EBFBCEB436FB2F57C0F70474FEA036C6D
:103C8000BCF1004F08BF20F00100B2F57C0F38BF37
:103C900070470BD582F0FF0212F5803FC8BF704716
:103CA00000F1C040D8BF00F00040704700F5000CA4
:103CB0005FEA4C0C48BF7047B0F1C04000F073B8E9
:103CC0000CEAD11390EA010F48BF42F480726245BA
:103CD00038BF634504D280EA010000F0004070471D
:103CE00010B500F01AF800BF8900013E00F007B8D7
:103CF00000F009B85FEA410C5FEA1C6C08D080EA6A
:103D0000010000F050B85FEA400C5FEA1C6CF6D18D
:103D10004FF00040A0F5800070470EF1020E2EF02B
:103D2000030E5EF8044B244204D44FEA4102B2F180
:103D30007F4F11D84FEA4003B3F17F4F0CD80ED11B
:103D40004FEAD07C0CEB4C0C0CF1020CB2F17F4F23
:103D500008BF4CEBD17C04E04FF0080C01E04FEAC7
:103D6000D17C0CEB4C0324FA03F404F00704B4F107
:103D7000040C06D20EEB840CBDE810404CF0010C94
:103D80006047DFE80CF0070802024FF00040A0F5A2
:103D9000800010BD0846420018BFD2F1807288BF73
:103DA00000F0004010BDFF2141EAD050C00570472F
:103DB00090EA010F48BF81F000413FF5C8AD421ABB
:103DC00004D882F00042A0EB020011444FEAD05226
:103DD000A2EBD1534FF07F4C1CEA410F18BF9CEA75
:103DE000026F4AD04FF0004C4CEA00204CEA01210F
:103DF00021FA03FCB0EB0C0C0FD412F0FE0F36D0FE
:103E00005FEA4C001DD5001240EBC25038BF70472E
:103E10001CF03F0F18BF70470BE05FEA1C20A2F1B7
:103E2000010240EBC25038BF70471CF07F0F18BF33
:103E30007047C3F12003994014BF401E20F00100D9
:103E400070474FEA1223800808BF7047B0FA80FC21
:103E5000A2EB0C02CCF1280C60FA0CF093EA122FC2
:103E600004BF00EBC25070474FEAC3707047130A9B
:103E70005FEADC1008BF7047F6E79CEA026F04D0E7
:103E800010EA5C0F08BF0020704710B5FFF745FF30
:103E900040DFF63E81F000407047FCF74CBB00006D
:103EA00002400000000000A00000000005400000EB
:103EB000000000C8000000000C4000000000409C12
:103EC00000000000194000000020BCBE00000000FF
:103ED00034400000BFC91B8E00000004B540000044
:103EE000504BCFD06607E2CF010000006C410000CC
:103EF0003E8251AADFEEA73401000000D942000043
:103F0000DCB5A0E23A301F97FFFFFFFFB445000089
:103F1000FD25A0C8E9A3C14FFFFFFFFFFF3F000041
:103F20000000008000000000FF3F00000000008053
:103F30000000000000000000000000000102030477
:103F40000607080900000000010203040102020341
:103F50000405060708090A0B0C0D0E0F10103F068A
:103F60005B4F666D7D077F6FA83F00080000002053
:103F70005000000050010008F83F000850000020E9
:103F800048070000700100081C000000430000000A
:103F9000F8FFFFFF0C0000000E0000000F00000003
:103FA0002E000000000000000200000400080000D5
:103FB000000C0140000C0140000C01400200080010
:103FC00020008000010004001000000000080140F3
:103FD000000801400008014000080140000C0140B9
:103FE000000801400008014001000000100000002E
:083FF00000127A00000000003D
:04000005080000ED02
:00000001FF
