:020000040800F2
:10000000E0070020CD010008292900082129000867
:1000100025290008CD0A0008612A00080000000018
:10002000000000000000000000000000312900086E
:10003000BD0C0008000000002D290008352900082B
:10004000E7010008E7010008E7010008E7010008F0
:10005000E7010008E7010008E7010008E7010008E0
:10006000E7010008E7010008E7010008E7010008D0
:10007000E7010008E7010008E7010008E7010008C0
:10008000E7010008E7010008E7010008E7010008B0
:10009000E7010008E7010008E7010008E7010008A0
:1000A000E7010008E7010008E7010008E701000890
:1000B0003D290008E7010008E7010008E701000802
:1000C000E7010008E7010008E7010008E701000870
:1000D000E7010008552A0008E7010008E7010008C9
:1000E000E7010008E7010008E701000800F002F856
:1000F00000F05DF814A696E8000CB244B344DA456B
:1001000001D100F054F8BAE80F000FA696E83000CD
:10011000A5EB040504EB0607AAEB0704A7F101070A
:100120004FEA15154FEA3414A4F10104AC4201D38F
:1001300000F03DF813F0010F18BFFB1A43F0010364
:1001400000F001F8DBE71847C4400000E44000007D
:10015000103A24BF78C878C1FAD8520724BF30C8F3
:1001600030C144BF04680C60704700007047000055
:100170000023002400250026103A28BF78C1FBD8B0
:10018000520728BF30C148BF0B607047662903F093
:10019000C287002070471FB500F022FB040000203A
:1001A000002103F0C3FCE0601FBD10B510BD00F0DE
:1001B00017FC1146FFF7EFFF02F054FC00F035FC8E
:1001C00003B4FFF7F2FF03BC00F078FC0948804756
:1001D00009480047FEE7FEE7FEE7FEE7FEE7FEE729
:1001E000FEE7FEE7FEE7FEE704480549054A064B41
:1001F0007047000039290008ED000008E0010020E8
:10020000E0070020E0030020E00300200FB41CB54D
:10021000074B06AA7B4469460090059800F0C7FA90
:100220000020694600F0D6FA1CBC5DF814FB000003
:10023000BD0500002DE9F0474FF0000A894604464D
:10024000C0F820A02046E1688847002876D02528FD
:1002500006D0D4E901219047206A401C2062F1E7D2
:10026000E168204600258847C4F81CA00646002700
:10027000C4F818A02A2E09D0304603F04FFC38B33A
:1002800004EB8708303EC8F8186019E059F8041BE1
:10029000204604EB87029161E1688847012F0646FA
:1002A00018D1E069002820DA25F020051DE0D8F8F3
:1002B000180000EB800006EB40003038C8F818004A
:1002C0002046E1688847064603F028FC0028EED166
:1002D000012F0AD02E2E08D12046E16888477F1CC6
:1002E0000646022F45F02005C4DBA069002803DA8A
:1002F000404245F00105A061E80701D025F0100556
:10030000B6B1A6F14100192802D8203645F400659F
:100310004A463146204625604D46FFF737FF58B123
:10032000012806D0ED1D25F0070000F1080989E736
:1003300004E005F1040985E730468AE7206ABDE854
:10034000F08710B5431C02E010F8011B71B1810762
:10035000FAD14FF0013202C88C1A8C4314EAC21150
:10036000F9D0C01A0A0603D0C01E10BDC01A10BDB5
:100370000A0401D0801E10BD0902FCD0401E10BD31
:100380007047704770472DE9FF4F0C461E464FF0EF
:10039000FF378BB0D2E90001DDF860800A908A4611
:1003A000C1F30A5505B93D46002108464FF000004B
:1003B000BAF1000F00F4400005DA00EB80004FF4C2
:1003C000400101EA50004FEA9059B9F1010F00DDF8
:1003D000B9460A9850EA4A000ED044F61050A5F2E9
:1003E000FF3545432F14B8F1000F1ED07542291E6A
:1003F0001EDDC9F100021CE0B8F1010F4FF0000052
:1004000001D0302103E0F24305E02154401CB0420A
:10041000FBDB30460022002121540B99C1F80880F3
:10042000C1E900200FB0BDE8F08FBD1B6D1CDEE7F9
:100430004A4600DA694206A800F05CFA06AB93E887
:10044000070003AB83E8070050460A9902F089FFD2
:100450008DE80700A0F500501F3800900398002D8C
:100460000ADD42F21F014A460844002303A9039013
:10047000684603F0F3F909E0A0F500504A461F383A
:10048000002303A90390684603F0FDF98DE80700F7
:100490000004000C03D04FF0FF30410800E010468C
:1004A000B8F1000F03D00022009215461EE0751E21
:1004B00005D400F099F9303262556D1EF9D5B34676
:1004C0000122084302D000227F1C04E0207830285B
:1004D00001D100227F1E002A099784D01DE0112D32
:1004E00007DA00F081F9303262556D1C50EA0102E2
:1004F000F5D1084302D00098C8B10EE00021681E73
:1005000005E0235C625C63542254401E491C814216
:10051000F7DBAB46A81B401E0990002004F80B0037
:100520000B98099AC0F80880C0E9002B7AE71126D9
:100530004FF0000857E72DE9F04F88460446D21DDA
:1005400022F0070191B0D1E90001CDE90A0103F0E1
:10055000D1FA02460B98C00F01D02D2007E0206889
:10056000810701D52B2002E0202101EAC000032AE7
:10057000099001D0072A05DB03464146204600F0DA
:1005800079F90BE12078800601D5E06900E00620CA
:10059000B8F1650F814606D0B8F1660F18D0B8F1F2
:1005A000670F70D131E00020B9F1110F009001DB2D
:1005B000112301E009F101030AAA01A90CA8FFF720
:1005C000E2FEDDE90C70002609F10105834647E0F3
:1005D00001204B4600904FF000470AAA01A90CA841
:1005E000FFF7D1FEDDE90DB00C995D46002610B98C
:1005F00009F101000D18B9EB050003D4C0F1FF3675
:1006000009F10105A5EB09002BE0B9F1010F01DAB1
:100610004FF001090020B9F1110F0090484601DDAB
:10062000112300E003460AAA01A90CA8FFF7ABFEBC
:10063000DDE90C704D4600268346207800070AD479
:10064000AB4500DA5D4601A8012D04DD411911F822
:10065000011C302907D04F4502DA17F1040F04DAE4
:10066000012082460FE06D1EEEE7002F02DCED1B3D
:100670003E4403E0781CA84200DD7D1CB81B00F15D
:10068000010A4FF000472078000703D4AA4501DB98
:100690004FF0FF3A0021B7F1004F0DF143088DF8FC
:1006A000431024D002202B23002F01DA7F422D2378
:1006B0000A21021EA0F1010000DC5FB197FBF1FCF2
:1006C00097FBF1F201FB1C7C17460CF1300C08F88B
:1006D00001CDEEE7A8F1010003702188090501D5DD
:1006E000452100E06521A0F1010800F8011C0998EE
:1006F0000FA9A1EB0807FF1D00B10120411901EB73
:10070000EA70A1693844081A401EA0612078C0062A
:1007100002D42046AFF30080099828B1D4E9012122
:100720009047206A401C20622078C00622D52046CF
:10073000AFF300801EE0002E04DBB34502DD01A80C
:10074000805D00E03020D4E901219047206A401C00
:100750002062761CAAF101005FEA000A0AD100F0CB
:100760003FF8C0680168405CD4E901219047206AE5
:10077000401C2062281EA5F10105DCDC07E0D4E95D
:10078000012118F8010B9047206A401C2062381E96
:10079000A7F10107F3DC2046AFF30080032011B07E
:1007A00041E6000001694A1C02610878704700B503
:1007B0008FB0CDE901310021059105497944CDE99A
:1007C000031011466846FFF735FD0FB000BD00006D
:1007D000E5FFFFFF0A6802F8010B0A60704700009E
:1007E000004870477000002030B5B0F10A0271F186
:1007F00000034FEA900E4EEA817EB0EB0E0061EBF3
:1008000091014FEA101E4EEA017E10EB0E0041EB03
:1008100011114FEA102E4EEA016E10EB0E0041EB63
:1008200011214FEA104E4EEA014E10EB0E0041EB43
:100830001141401841F100014FEAD00040EA4170F7
:100840004FEAD1014FEA810444EA907410EB80052D
:1008500044EB01046D1944EB0404521BA3414FF017
:10086000000348BF0A3200D530BD401C41F10001F1
:1008700030BD00002DE9F0411F4604460326016803
:10088000072A01F4006004DB08B116A505E016A5EF
:1008900003E008B115A500E015A521F010002060C7
:1008A000A069C01EA0610FB1401EA0612046AFF339
:1008B00000804FB1D4E9012138469047206A401C9E
:1008C0002062C01C206206E0206AFAE7D4E9012118
:1008D00015F8010B9047761EF8D22046AFF3008042
:1008E000BDE8F0814E414E006E616E00494E4600FB
:1008F000696E66002DE9F047814616468AB0354894
:1009000078440DC88DE80D0032487844801C03AC53
:100910000DC884E80D0041F69B300844372190FB58
:10092000F1F290FBF1F5A5F1800501FB12041B3CEF
:1009300002D56442012000E00020DFF898A0804644
:100940000027FA44AAF1BE0A0EE0E0070AD03246B8
:10095000684607EB470101230AEB810102F093FF90
:100960008DE8070064107F1C002CEED1194F7F44E6
:10097000AE3F19E0E80715D007EB04100DF1180A97
:1009800090E80E008AE80E00C068F04201D1981984
:1009900008903246012306A903A802F074FF03ABB6
:1009A00083E807006D10641C002DE3D14FF00103B4
:1009B00032466946B8F1000F03A802D002F04EFF9C
:1009C00001E002F060FFC9E90001C9F808200AB09F
:1009D000BDE8F087943800000048704750000020C0
:1009E0007546FFF7F9FFAE4605006946534620F00D
:1009F0000700854618B020B5FFF7F6FBBDE820409C
:100A00004FF000064FF000074FF000084FF0000BCA
:100A1000AC46ACE8C009ACE8C009ACE8C009ACE839
:100A2000C00921F007018D46704710B50446AFF3A9
:100A300000802046BDE81040FFF7C2BB4FF0013CEC
:100A400050F8042B51F8043B9A4221D1A2EB0C033D
:100A5000934313EACC1317D150F8042B51F8043BFD
:100A60009A4215D1A2EB0C03934313EACC130BD19A
:100A700050F8042B51F8043B9A4209D1A2EB0C0325
:100A8000934313EACC13DBD04FF00000704700BF54
:100A9000D01A01BAB1FA81F101F0180122FA01F07D
:100AA000CB40DBB2C0B2C01AC1F120012CFA01F375
:100AB000D11A914311EAC311E6D1704701491820B8
:100AC000ABBEFEE72600020070470000FEE7000014
:100AD0002DE9F04F81B040F6004440F2B00640F2FC
:100AE00004194FF00008C4F20104C2F20006C2F279
:100AF00000094FF0010A002704E000BF0137082F6A
:100B0000AB4643D000F084FAB06100BF00F080FA39
:100B1000F06120464FF4007100F06EFA20B9D6E97A
:100B2000061002318142F1D8D9F80000C0F82480C3
:100B3000416A272908D8416A272905D8416A272907
:100B400002D8416A2829F3D320464FF4007100F0FF
:100B500053FA87F007010AFA01F14BEA0105002870
:100B600008BF2BEA010500F053FAB06100F050FA1B
:100B7000F06120464FF4007100F03EFA0028BDD02D
:100B8000D6E9061002318142F0D8B7E7E8B201B0E9
:100B9000BDE8F08F70B584B04FF4007040F60044AB
:100BA00000900120C4F2010401900220039000256E
:100BB00069462046029500F017F920464FF400716F
:100BC000002200F01FFA40F20416C2F2000630685C
:100BD00040F2135140F21452456200BF436A8B4207
:100BE00008D8436A8B4205D8436A8B4202D8436ACD
:100BF0009342F3D320464FF40071012200F002FA31
:100C000030680021416200BF416A1D2908D8416A4D
:100C10001D2905D8416A1D2902D8416A1E29F3D32E
:100C200001200025029069462046019500F0DCF87D
:100C300030684562416A272908D8416A272905D8C2
:100C4000416A272902D8416A2829F3D320464FF464
:100C5000007100F0D1F94FF00005B0B9306845627D
:100C6000416A4F2908D8416A4F2905D8416A4F295E
:100C700002D8416A5029F3D320464FF4007100F0A6
:100C8000BBF90546002818BF012500F0C1F940F264
:100C9000B006C2F20006B06100F0BAF9F061204679
:100CA0004FF4007100F0A8F920B1D6E90610023126
:100CB0008142F1D8284604B070BD000070470000A2
:100CC000014690F82100022816D10868D1E90FC327
:100CD000026822F00E020260026822F00102026045
:100CE000012000FA03F2CCF8042081F82100002052
:100CF000002281F820207047042088630120002210
:100D000081F820207047000090F82110022923D19B
:100D1000026840F2040C1168C4F2020C21F00E01CA
:100D2000116013682F21C4F202018A4223F00103EB
:100D3000136015DD3023C4F202039A421CD0442311
:100D4000C4F202039A421BD05823C4F202039A420F
:100D50001CD14FF4803321E00421816301207047CE
:100D60000823C4F202039A420ED01C23C4F20203E9
:100D70009A420BD1102311E04FF480730EE000BFB4
:100D80004FF480530AE000BF012307E00CF1680133
:100D90004FF080738A4208BF4FF480130121CCF8D2
:100DA000003080F82110416B0022002980F82020BB
:100DB00004BF0020704780B58847002080BD000038
:100DC000B0B5044600F024F9054640F24400C2F2F2
:100DD00000000078611C18BF044400BF00F018F93F
:100DE000401BA042FAD3B0BD2DE9F04F82B00E688F
:100DF000002E00F0FD8041F20042C4F20102042303
:100E000040F2004E904208BF03234FF6FF7CC4F22D
:100E1000010E009300240123C1F2100C4FF0000AD0
:100E20004FF000094BE000BF41F20002C4F20102A2
:100E3000009F904208BF022704F00C030F229A4043
:100E40002BEA020207FA03F34FEA9A051A4346F81F
:100E500025204E6840F20C45F202DEF8082054BF0F
:100E600022EA080242EA0802C4F20105CEF808208C
:100E70002A68B30254BF22EA080242EA08022A6042
:100E8000B303DEF8042054BF22EA080242EA080253
:100E9000F303CEF80420DEF800204FF0010354BF26
:100EA00022EA080242EA0802CEF800200E680AF19F
:100EB000010A36FA0AF204F1040400F0998003FAF8
:100EC0000AFB16EA0B08F1D04E68664512DC122EBA
:100ED00056D8DFE806F0350B4D4955555555555553
:100EE0005555555555555545510000BFD1F80C90F5
:100EF00046E000BF4FF6FF72C1F2210296420FDCBE
:100F00000022C1F2110296421AD00022C1F212024E
:100F1000964215D00022C1F22102964210D02FE055
:100F20000022C1F2220296420AD00022C1F231020E
:100F3000964205D00022C1F23202964220D100BF73
:100F40008A684AB1012A14BFC0F814B0C0F810B0C2
:100F50004FF0080914E000BF4FF0040910E000BF93
:100F6000CA6802F104090BE04FF0000908E000BF75
:100F7000CA6802F1080903E0CA6802F10C0900BF5F
:100F800002462646B8F5807F24BF0432203E17680B
:100F90000F25B54027EA050509FA06F63543156021
:100FA000CA79D2067FF582AF41F21803C4F2020378
:100FB0001A68AEF57E7642F001021A601A6802F0F5
:100FC00001020192019A2AF0030256F802B040F69B
:100FD0000002C4F20102904208D040F60042C4F27E
:100FE000010290427FF420AF012725E7002723E785
:100FF00002B0BDE8F08F00008068084018BF0120F3
:1010000070470000002A08BF090401617047000012
:1010100040F2DC10C2F200000068704740F2440069
:1010200040F2DC11C2F20000C2F2000100780A684E
:10103000104408607047000080B542F20000C4F21E
:101040000200016841F010010160032000F08CF8FB
:101050000F2000F005F800F027F8002080BD000008
:1010600070B540F24406C2F2000640F24C013278FC
:10107000C2F200014FF47A730968B3FBF2F204463E
:10108000B1FBF2F1084600F085FB0F2C4FF0010593
:1010900008D838B94FF0FF3021460022002500F073
:1010A00037F87460284670BD82B041F21800C4F26F
:1010B00002000168022241F001010160016801F0B3
:1010C000010101910199416841F0805141604068FE
:1010D00000F08050009000980420C4F201000168E4
:1010E00062F31A61016002B070470000002848BF37
:1010F000704700F01F01012202FA01F11C2202EAEE
:10110000D0004EF20012CEF2000281507047000073
:1011100010B54EF60C5CCEF2000CDCF80030C3F3D8
:10112000022E8EF00704042C28BF0424BEF1030312
:101130004FF0FF3E0EFA04F438BF0023A14399405C
:101140000EFA03F39A43114300F00F0200F16043DB
:101150000901043A03F564436244002848BF02F1E0
:101160000C03197010BD00004EF60C51CEF20001B8
:101170000A684FF6FF031A4060F30A2242F08060CB
:1011800040F0FD7008607047002804BF01207047E0
:101190002DE9F04381B042F20008C4F2020804468F
:1011A000D8F800000D4600F0070088420CD2D8F8AD
:1011B000000020F007002843C8F80000D8F800001D
:1011C00000F00700A8426CD1206841F204098107B1
:1011D000C4F2020917D5410705D5D9F8001041F42A
:1011E000E061C9F80010010705D5D9F8001041F4F5
:1011F0006051C9F80010D9F80010A26821F0F00180
:101200001143C9F80010C00742D1D8F8000000F01F
:101210000700A8420CD9D8F8000020F007002843A6
:10122000C8F80000D8F8000000F00700A84238D144
:101230002068410707D5D9F80010E26821F4E06181
:101240001143C9F80010000708D5D9F8000021693A
:1012500020F4605040EAC100C9F80000D9F800202D
:1012600002F00C00082841F20020C0F27A004DD1B3
:1012700044F2CA13C2F38341C0F60003595CD2039F
:1012800038D440F60010C0F23D0048433EE000BFB5
:10129000606859F8041C022808D0012826D1890367
:1012A00006D4012001B0BDE8F08300BF8901F8D564
:1012B000D9F8001021F003010843C9F80000FFF736
:1012C000A7FE064641F28837D9F80000616800F0B1
:1012D0000C00B0EB810F98D0FFF79AFE801BB8424C
:1012E000F2D9032001B0BDE8F08300BF8907D8D54B
:1012F000DEE700BFD9F8002044F2C813C2F3404231
:10130000C0F600039A5C4843B0FBF2F0D9F8001035
:1013100044F2B012C1F30311C0F60002515C40F276
:101320004C0220FA01F140F24800C2F200000068CD
:10133000C2F200021160FFF793FE002001B0BDE889
:10134000F083000040F24C0041F20401C2F20000C0
:10135000C4F202010068096844F2C012C1F302211C
:10136000C0F60002515CC8407047000040F24C00DB
:1013700041F20401C2F20000C4F2020100680968EF
:1013800044F2C012C1F3C221C0F60002515CC84051
:1013900070470000002804BF012070472DE9F0418C
:1013A00082B00446007841F20006C007C4F202068B
:1013B0000CD0706800F00C00042840F08180306888
:1013C000800303D56068002800F0468120788007FC
:1013D0001BD5706810F00C0F09D0706800F00C007D
:1013E000082840F087807068C00300F1838030686F
:1013F000800703D52069012840F02E81306861699B
:1014000020F0F80040EAC10030602078000713D4D3
:10141000207840072CD4E569002D00F01881706811
:1014200000F00C00082840F0A780012D40F0048156
:10143000012002B0BDE8F081A069002800F084809E
:101440000020C4F242200121C0F88014FFF7E0FD23
:10145000054600BF706A800700F1B280FFF7D8FD33
:10146000401B0228F6D9032002B0BDE8F08100BF7E
:10147000F0695FEAC00808D4F06940F08050F0617C
:10148000F06900F080500090009847F20007C4F225
:1014900000073868C00549D4386840F48070386067
:1014A000FFF7B6FD054600BF3868C0053ED4FFF71C
:1014B000AFFD401B6428F7D9032002B0BDE8F081DE
:1014C000706800F00C00082803D17068C0033FF575
:1014D00076AF61683068002900F00C81B1F5A02F6B
:1014E00000F00081B1F5803F40F01A8140F4803077
:1014F0001CE100BF2069002840F20000C4F2422035
:1015000000F0888001210160FFF782FD054600BFE1
:10151000306880073FF572AFFFF77AFD401B022865
:10152000F6D9032002B0BDE8F08100BFE168306A5F
:10153000002900F09D80052900F09280012940F0EB
:10154000AF8040F00100B1E00020C4F24220002151
:10155000C0F88014FFF75CFD054600BF706A800785
:101560007FF556AFFFF754FD401B0228F6D9032044
:1015700002B0BDE8F08100BF0027C4F2422700207E
:101580003866FFF745FD022D05460DD13068800114
:1015900040F1DE80FFF73CFD401B02284FF00300C6
:1015A000F4D902B0BDE8F081306880014FD5FFF773
:1015B0002FFD401B02284FF00300F5D9F1E700BFD3
:1015C00040F24C00C2F20000006844F6D351C1F270
:1015D0006201A0FB0101480A019000BF00BF019811
:1015E000411E002801913FF413AF00BF0198411E36
:1015F000002801913FF40CAF00BF0198411E002864
:1016000001913FF405AF00BF0198411E00280191F0
:10161000E4D1FDE600210160FFF7FAFC054600BFBA
:10162000306880077FF5F1AEFFF7F2FC401B02281F
:101630004FF00300F4D9B4E77068216A00F48032F7
:101640008A4209D1616A00F47010884204D10020F6
:1016500002B0BDE8F08100BF012002B0BDE8F0811A
:1016600040F004003062306A40F001001EE000BF2C
:1016700020F001003062306A20F004003062FFF791
:10168000C7FC054641F28837306A800720D5FFF74E
:10169000BFFC401BB8424FF00300F5D981E700BF03
:1016A00020F001003062306A20F004003062FFF761
:1016B000AFFC054641F28837306A800708D4FFF74F
:1016C000A7FC401BB842F7D9032002B0BDE8F08167
:1016D000B8F1000F3FF59FAEF06920F08050F06147
:1016E00099E600BF40F480203060306840F48030DC
:1016F0001CE000BF20F480303060306820F480208F
:101700003060FFF785FC0546306880037FF55EAEEC
:10171000FFF77EFC401B64284FF00300F4D940E73C
:1017200020F480303060306820F480203060FFF793
:101730006FFC0546306880033FF548AEFFF768FC54
:10174000401B6428F6D9032002B0BDE8F08100BF39
:10175000206AB0F5803F05D17168A26821F400319C
:10176000114371607168626A21F474111143084376
:10177000706001203866FFF74BFC0446306880013A
:101780003FF565AFFFF744FC001B02284FF0030054
:10179000F4D906E7411E0020B0EB116F1CBF0120F9
:1017A00070474EF21002CEF2000251604EF6235105
:1017B000CEF20001F0230B7007219060116070479A
:1017C000704700007047000090F83C20012A4FF05D
:1017D000020236D010B580F83D200268D2F804E04D
:1017E000D2F808C00C682EF07003234340F2FF7457
:1017F000C4F20004A24253600ADCB2F1804F13D05D
:1018000040F20043C4F200039A420DD011E000BF41
:1018100042F60043C4F201039A4205D040F60003A9
:10182000C4F200039A4204D149682CF080031943A2
:1018300091600121002280F83D1080F83C20BDE835
:101840001040104670470000002804BF0120704778
:1018500010B590F83D1031B9002180F83C100446D5
:1018600000F070F82046022180F83D10016840F237
:10187000FF740B68C4F2000442F6004CA142C4F2AB
:10188000010C15DCB1F1804F1AD040F20042C4F2D5
:101890000002914214D0A14218DCB1F1804F1DD05A
:1018A00040F20042C4F20002914217D01AE000BF99
:1018B000614505D040F60002C4F200029142EAD12F
:1018C000826823F070031343A142E6DD614505D031
:1018D00040F60002C4F20002914203D1026923F4EF
:1018E00040731343846923F08002D0F804E0C36896
:1018F000224361450A60CB62C1F828E002D1426907
:10190000CCF8302001224A610B69DB0703D00B6958
:1019100023F001030B6180F8462080F83E2080F818
:101920003F2080F8402080F8412080F8422080F855
:10193000432080F8442080F8452080F83D20002096
:1019400010BD000080B582B00068B0F1804F15D0A6
:1019500042F60041C4F2010188420CD141F2180064
:10196000C4F20200016841F400610160006800F403
:1019700000600190019802B080BD00BF41F21800E4
:10198000C4F202004168002241F001014160406858
:10199000002100F00100009000981C20FFF7B8FB28
:1019A0001C2002B0BDE88040FFF7A0BB90F83D10BE
:1019B00001291CBF01207047022180F83D100068FA
:1019C00040F2FF71C4F20001884209DCB0F1804F9F
:1019D00012D040F20041C4F2000188420CD012E063
:1019E00042F60041C4F20101884205D040F60001F0
:1019F000C4F20001884206D1816801F0070106297E
:101A000004BF00207047016841F00101016000201F
:101A10007047000090F83D1001291CBF012070475D
:101A2000022180F83D10006840F2FF72C168C4F2E4
:101A30000002904241F00101C16009DCB0F1804F29
:101A400012D040F20041C4F2000188420CD012E0F2
:101A500042F60041C4F20101884205D040F600017F
:101A6000C4F20001884206D1816801F0070106290D
:101A700004BF00207047016841F0010101600020AF
:101A80007047000090F83C20012A4FF002026CD011
:101A900080B580F83D20D0F800C04FF67772DCF8B2
:101AA000083023EA0202CCF808200B684F2B29DC0F
:101AB0001F2B45DD202B46D0302B44D0402B40F04F
:101AC000AF80D1F804E0C968DCF82030DCF82020D1
:101AD00022F00102CCF82020DCF8182022F0F002DD
:101AE00042EA011123F00A0242EA0E02CCF8181071
:101AF000CCF82020DCF8081041F0470121F030013B
:101B000028E000BF6F2B33DDB3F5005F74D0B3F571
:101B1000805F21D0702B40F08380D1E901E3C96858
:101B2000DCF8082043EA0E0322F47F4243EA012155
:101B30001143CCF80810DCF8081041F0770109E0F7
:101B40000BB1102B6CD1DCF8081021F07001194397
:101B500041F00701CCF808100022012180F83D1067
:101B6000002180F83C10BDE880401046704700BF5F
:101B7000502B21D0602B53D1D1F804E0C968DCF898
:101B80002030DCF8202022F01002CCF82020DCF8F5
:101B9000182022F4704242EA013123F0A00242EA06
:101BA0000E12CCF81810CCF82020DCF8081041F008
:101BB000670121F01001CDE7D1F804E0C968DCF835
:101BC0002030DCF8202022F00102CCF82020DCF8C4
:101BD000182022F0F00242EA011123F00A0242EA40
:101BE0000E02CCF81810CCF82020DCF8081041F0D8
:101BF000570121F02001ADE7D1E901E3C968DCF824
:101C0000082043EA0E0322F47F4243EA01211143F4
:101C1000CCF80810DCF8081041F480419AE700BFC6
:101C200001229AE77047000070B504460068C56855
:101C30000669B10716D515F0020113D06FF0020145
:101C40000161012121778069800703D02046FFF7D9
:101C5000E9FF05E0204600F08FF8204600F08EF8FE
:101C600000202077700719D515F0040016D02068E1
:101C70006FF00401016102212177806910F4407F37
:101C800004D02046FFF7CEFF06E000BF204600F05C
:101C900073F8204600F072F800202077300717D53F
:101CA00015F0080014D020686FF0080101610421CC
:101CB0002177C069800703D02046FFF7B3FF05E016
:101CC000204600F059F8204600F058F80020207710
:101CD000F00619D515F0100016D020686FF010012D
:101CE000016108212177C06910F4407F04D02046AB
:101CF000FFF798FF06E000BF204600F03DF82046C1
:101D000000F03CF800202077F00718BF15F0010024
:101D100002D1300609D412E020686FF001010161A0
:101D2000204600F02DF8300609D515F0800006D0C9
:101D300020686FF0800101612046FFF741FD7006C9
:101D400009D515F0400006D020686FF04001016110
:101D5000204600F017F8B00658BF70BD15F02000FF
:101D600008D021686FF0200220460A61BDE870406B
:101D7000FFF728BD70BD00007047000070470000ED
:101D80007047000070470000704700007047000077
:101D9000B0B582B001680A68CC684B6902F02F05C3
:101DA000202D04F0200505D125B102B0BDE8B040DA
:101DB00000F0D0BD5FEA027C1EBF03F0010E04F408
:101DC000907313EB0E0341D1036BD50618D5012B8D
:101DD00016D114F0100313D0002201920A68019268
:101DE0004A680192019A496949064BD4818DC28D96
:101DF000C38D002B18BF914240F0F48102B0B0BDFA
:101E000013062DD514F080032AD090F84120212A02
:101E1000F4D18268B2F5805F03D10269002A00F034
:101E20006782026A531C036212784A60C28C013ACC
:101E30001304C284E2D1C86820F08000C860C8687A
:101E400040F04000C86002B0B0BD00BFD30718BF6B
:101E500014F4807340F0D080530700F1D380D8E0B1
:101E60005206CBD514F04002C8D0CA6822F0400216
:101E7000CA60202180F8411002B0BDE8B04000F0F7
:101E80004DBD00BFC16B0A68526893B2002BB5D03C
:101E9000858DAB42B2D2C2858969202900F0A1802C
:101EA000016851E8031F026821F4807142E80313BE
:101EB000DBB1016851E8031F026821F4807142E838
:101EC000031393B1016851E8031F026821F4807184
:101ED00042E803134BB1016851E8031F026821F483
:101EE000807142E80313002BDAD1016851E8051F25
:101EF000026821F0010142E80513C3B3016851E80B
:101F0000051F026821F0010142E805137BB3016857
:101F100051E8051F026821F0010142E8051333B3BF
:101F2000016851E8051F026821F0010142E805132C
:101F3000002BDAD11BE000BF016851E8051F0268E1
:101F400021F0400142E80513DBB1016851E8051FAB
:101F5000026821F0400142E8051393B1016851E89D
:101F6000051F026821F0400142E805134BB10168EA
:101F700051E8051F026821F0400142E80513002BDB
:101F8000DAD1202180F8421000210163016851E874
:101F9000031F026821F0100142E80313DBB101685E
:101FA00051E8031F026821F0100142E8031393B1C6
:101FB000016851E8031F026821F0100142E8031391
:101FC0004BB1016851E8031F026821F0100142E89B
:101FD0000313002BDAD1C16B04460846FEF770FEEE
:101FE000204602214163818DC28D891A89B202B0D7
:101FF000BDE8B040FFF7C8BE436C43F00103436443
:10200000530706D5BEF1000F03D0436C43F0020323
:102010004364930706D5BEF1000F03D0436C43F031
:1020200004034364BCF1000F06D55EEA050303D048
:10203000436C43F008034364436C002B3FF4DEAE73
:10204000920605D525B1044600F084FC216820469F
:102050004969426C01F0400102F00802891800F061
:10206000B98000BF016851E8031F026821F4907134
:1020700042E80313BBB3016851E8031F026821F46F
:10208000907142E8031373B3016851E8031F0268BB
:1020900021F4907142E803132BB3016851E8031F48
:1020A000026821F4907142E80313002BDAD11AE0A0
:1020B000016851E8051F026821F0010142E805139B
:1020C000DBB1016851E8051F026821F0010142E817
:1020D000051393B1016851E8051F026821F0010161
:1020E00042E805134BB1016851E8051F026821F071
:1020F000010142E80513002BDAD1016B012924D13B
:10210000016851E8031F026821F0100142E803133F
:10211000DBB1016851E8031F026821F0100142E8B9
:10212000031393B1016851E8031F026821F0100105
:1021300042E803134BB1016851E8031F026821F024
:10214000100142E80313002BDAD1202180F842105D
:102150000021016301684969490640F1C3800168B3
:1021600051E8051F026821F0400142E80513DBB188
:10217000016851E8051F026821F0400142E805139B
:1021800093B1016851E8051F026821F0400142E85F
:1021900005134BB1016851E8051F026821F04001A9
:1021A00042E80513002BDAD1C16B002900F09A80B8
:1021B00042F64912C0F60002044608464A63FEF79A
:1021C000A3FD00283FF41AAEE06B416B02B0BDE8FE
:1021D000B04008470446FFF7D9FD0020606402B014
:1021E000B0BD00BF891A00BF026852E8032F036820
:1021F00022F4907243E80325BDB3026852E8032F2E
:10220000036822F4907243E8032575B3026852E82C
:10221000032F036822F4907243E803252DB302686C
:1022200052E8032F036822F4907243E80325002D3F
:10223000DAD11AE0026852E8052F036822F00102A1
:1022400043E80525DDB1026852E8052F036822F056
:10225000010243E8052595B1026852E8052F03689D
:1022600022F0010243E805254DB1026852E8052F2E
:10227000036822F0010243E80525002DDAD120226F
:1022800080F8422000220263026852E8032F0368AC
:1022900022F0100243E80325DDB1026852E8032F63
:1022A000036822F0100243E8032595B1026852E862
:1022B000032F036822F0100243E803254DB10268A2
:1022C00052E8032F036822F0100243E80325002D93
:1022D000DAD1022289B2426302B0BDE8B040FFF712
:1022E00053BD00BF02B0BDE8B040FFF74FBD00BF17
:1022F000026A32F8023B6FF35F234B60026295E59E
:10230000002804BF0120704710B5044690F8410032
:1023100028B9002084F84000204600F063F824200B
:1023200084F841002068D4E90212C36823F4005302
:10233000C360036923F440531A430261D4E90423C0
:102340001143C268194341F20C639A431143C160BF
:102350004169A26921F44071114343F60002C4F2BD
:1023600001029042416103D0FEF7ECFF02E000BFA2
:10237000FEF7FCFFD4E90023192148439900B0FB84
:10238000F1F048F21F5CC5F2EB1CA0FB0C314FF6DC
:102390009C734909C0F6FF7301FB0300322303EB72
:1023A0000010A0FB0C03F02000EA531000EB01101A
:1023B000C3F34311084490601069202120F4904039
:1023C0001061506920F02A005061D06840F400503C
:1023D000D0600020606484F8411084F8421060638B
:1023E00010BD000070B586B040F60004C4F20104D0
:1023F000006804F54051002688420596CDE9036641
:10240000029601D006B070BD41F21800C4F202007D
:10241000016802AD41F480410160016801F480412E
:1024200001910199016841F00401016000682946A9
:1024300000F00400019001984FF400700290022017
:102440000390032005902046FEF7CEFC4FF48060F9
:10245000CDE90206204629460496FEF7C5FC252054
:1024600000210022FEF754FE2520FEF73FFE06B0B5
:1024700070BD00002DE9F04381B0044690F84200A1
:10248000202809D1884600294FF0010018BF002AF2
:1024900006D101B0BDE8F083022001B0BDE8F083B1
:1024A000002022211D46606484F8421020631646F5
:1024B000FEF7AEFDA685E685A1680746B1F5805F0B
:1024C00002D12069002851D046464FF00008E08D27
:1024D00000284FD005F101090CE000BF406800263C
:1024E0006FF35F2028F8020BE08D0138E085E08D66
:1024F00000283FD020680168890617D4B9F1000F81
:1025000022D0002D00F0CA80FEF782FDC01BA84239
:1025100000F2BC802068C168490744BF01685FEAD7
:1025200001712FD401688906EED500BF002ED5D0E9
:10253000A168B1F5805F15D009B9216991B14068F2
:1025400000F07F000FE000BF01688906EED401684B
:1025500089065CBF01685FEA8161E7D4016889068A
:10256000F2D5E3E7406806F8010BBDE70026E08DF1
:102570000028AFD10020202184F8421001B0BDE82E
:10258000F08300BF00210091016800914068009035
:10259000009800BF206850E8030F216820F4907075
:1025A00041E80302BAB3206850E8030F216820F421
:1025B000907041E8030272B3206850E8030F21686D
:1025C00020F4907041E803022AB3206850E8030F1A
:1025D000216820F4907041E80302002ADAD11AE061
:1025E000206850E8050F216820F0010041E805024D
:1025F000DAB1206850E8050F216820F0010041E8B9
:10260000050292B1206850E8050F216820F0010012
:1026100041E805024AB1206850E8050F216820F022
:10262000010041E80502002ADAD1206B012824D1FB
:10263000206850E8030F216820F0100041E80302F1
:10264000DAB1206850E8030F216820F0100041E85B
:10265000030292B1206850E8030F216820F01000B7
:1026600041E803024AB1206850E8030F216820F0D6
:10267000100041E80302002ADAD1202084F8420049
:10268000002008212063616484F840000320202199
:1026900084F8421001B0BDE8F08300BFFEF7B8FC3B
:1026A000F4E7000090F84230202B07D100294FF0CA
:1026B000010318BF002A05D11846704702231846A7
:1026C000704700BF00230363816222218285C28597
:1026D000436480F842100169006819B1C16841F48F
:1026E0008071C160416941F001014161C16841F0FF
:1026F0002001C1601846704740F29411C2F20001F7
:1027000000680968884218BF704710B582B040F26F
:102710009414C2F2000410A120461222642300F097
:1027200033F80DF10601204601224FF0FF33FFF789
:10273000A1FE0FA120461322642300F025F840F2E9
:10274000B000C2F20000811D20460122FFF7AAFF5F
:1027500002B0BDE8104070470D0A576169742066E9
:102760006F7220636F6D6D616E640D0A0000000072
:102770000D0A436F6D6D616E6420726563656976E5
:1027800065640D0A000000002DE9F04381B00446A5
:1027900090F84100202809D100294FF0010018BF0E
:1027A000002A07D101B0BDE8F08300BF022001B0CC
:1027B000BDE8F0830020606421201D460E4684F8A9
:1027C00041001746FEF724FCA784E784A1688146F0
:1027D000B1F5805F02D1206900285DD03746002026
:1027E000E28C2168002A5DD06A1C24D0002D4AD0DA
:1027F000804600BF0868000608D4FEF709FCA0EB7D
:102800000900A8427AD82168C868F3E717B117F819
:10281000010B04E038F8020B00276FF35F204860DB
:10282000E08C0138E084E08C0028E3D13AE000BF7E
:102830000A68120609D40A68120606D40A68120643
:102840005CBF0A685FEA0262F2D51FB117F8012B7C
:1028500005E000BF30F8022B00276FF35F224A60CB
:10286000E28C013AE284E28C002AE4D11AE000BF53
:1028700030F8022B00276FF35F224A60E28C013AA6
:10288000E284E28C72B10A68120635D5002FEFD0CF
:1028900017F8012BF1E700BF00273046E28C2168D2
:1028A000002AA1D1086840061ED42DB3681C14D19B
:1028B000086840062AD40868400627D408684006FD
:1028C00024D4086840064FF00000F1D50DE000BFA9
:1028D0002068C1680068400618D4FEF799FBA0EB99
:1028E0000900A842F4D909E00020202184F8411011
:1028F00001B0BDE8F08300BFFEF78AFB0320202172
:1029000084F8411001B0BDE8F08300BF0020202111
:1029100084F8411001B0BDE8F0830000704700006A
:10292000FEE70000FEE70000FEE700007047000041
:1029300070470000FEF772BB7047000040F24C1079
:10294000C2F20000FFF770B9406A0021C185C1845E
:10295000FFF71CBA81B090F84210222921D1836878
:102960000246B3F5805F09D152F8281F52F8183C8F
:10297000002B63D003685B680AE000BF52F8281F91
:1029800013B90369002BF5D003685B6803F07F037C
:102990000B70116801311160C18D01390A04C185C4
:1029A00002D001B0704700BF0168CA6822F020025F
:1029B000CA60CA6822F48072CA604A6922F00102C1
:1029C0004A61202180F8421000214163026B012AF4
:1029D0003CD10163016851E8031F026821F0100136
:1029E00042E80313DBB1016851E8031F026821F0DC
:1029F000100142E8031393B1016851E8031F026814
:102A000021F0100142E803134BB1016851E8031FA4
:102A1000026821F0100142E80313002BDAD10168AB
:102A20000A68D20606D5002200920A680092496818
:102A300000910099818D01B0FFF7A6B90268526834
:102A40006FF35F2221F8022B8162A5E701B0FFF747
:102A500053BE000040F29410C2F20000FFF798B994
:102A6000FEE7000094B0FEF7E7FA00240120CDE96C
:102A70000F44CDE90D440A900E904FF4E0104FF44E
:102A80008031022513900AA8CDE90B14CDE911512C
:102A9000FEF780FC20B1EFF3108072B6FEE700BFB6
:102AA0000F20CDE904054FF48060CDE9070404A8A8
:102AB00002210694FEF768FB20B1EFF3108072B696
:102AC000FEE700BF002441F21800CDE90C44CDE937
:102AD0000A44C4F20200016840F6000841F02001F7
:102AE00001600168C4F2010801F020010491049919
:102AF0000168002241F0040101600168FE2601F036
:102B0000040104910499016841F008010160006822
:102B1000FE2100F00800049004984046FEF772FA87
:102B200008F58065284640F60361002240F60369F7
:102B3000FEF768FA0A960AAE4FF0010A02274046ED
:102B40003146CDE90BA40D97FEF74EF928463146E4
:102B5000CDE90A9ACDE90C470395FEF745F940F215
:102B6000041008F51051C2F200004FF6FF730D94E7
:102B7000CDE90B44CDE90444472280E81600C0E9C2
:102B80000334C0E90544FEF75FFE28B1EFF310807F
:102B900072B600BFFEE700BF4FF480500A9040F2CB
:102BA0000410C2F200000AA9FEF76CFF20B1EFF397
:102BB000108072B6FEE700BF40F20410C2F20000BF
:102BC00004A9FEF701FE28B1EFF3108072B600BF32
:102BD000FEE700BF40F2941008F54051C2F2000039
:102BE00000240C234FF4E13280E81600C0E90344CE
:102BF000C0E90534C461FFF783FB28B1EFF310800F
:102C000072B600BFFEE700BF40F24C10C2F20000F7
:102C10004FF0804142F20F730D94CDE90B44CDE9A2
:102C20000444472280E81600C0E903348461FEF7BB
:102C30000BFE28B1EFF3108072B600BFFEE700BFB5
:102C40004FF480500A9040F24C10C2F200000AA9E2
:102C5000FEF718FF20B1EFF3108072B6FEE700BF59
:102C600040F24C10C2F2000004A9FEF7ADFD28B1FD
:102C7000EFF3108072B600BFFEE700BF40F2041011
:102C8000C2F20000FEF792FE40F24C10C2F20000C9
:102C9000FEF7C0FE40F29414C2F200042046FFF793
:102CA0002FFB40F2B005C2F20005A91D204601220B
:102CB000FFF7F8FC05F1200040F2000B0024009023
:102CC00041F27B49C2F2000BC4F2201401200190B2
:102CD00016E000BF039840F602410022FEF792F989
:102CE000404640210022FEF78DF9019880F0010056
:102CF00001904FF47A70FEF763F80024C4F22014B8
:102D0000FDF748FF00285CD0FDF7E2FE40F2B00579
:102D1000C2F200052870FDF7DBFE6870FDF7D8FEF3
:102D2000A870FDF7D5FEE870FDF7D2FE2F7895F874
:102D300001A095F9022001462871E8780AEB070303
:102D400013440344DEB28E426B713AD1B2F1FF3FBD
:102D500006DDD1B240EA012001F070F8214604E01E
:102D600001F084F80021CCF2201100F089FF40F23C
:102D7000B005C2F2000521460646E86001F08AF877
:102D800001F040F8002128813046C4F2101101F012
:102D900081F80021C4F2A00100F072FF4FF08441DD
:102DA00000F00CFF28614AEA072001F047F82146AD
:102DB00000F066FF2146686101F06CF801F022F82E
:102DC00068814FF47A70FDF7FBFF0198C00700F0AF
:102DD000638140F2B000C2F20000C06800F0C2FEA1
:102DE000009C0B4644F2F71102462046C0F6000153
:102DF000FDF70CFA2046FDF7A4FA82B240F29410D7
:102E0000C2F2000021464FF0FF33FFF7BDFC40F255
:102E1000F51A4CF6CD4441F69A1600BF40F2B000C8
:102E2000C2F200000089BBF80630810801FB09F5F9
:102E300081B26143C90C01FB06F2120C02EB820263
:102E4000A1EB420201EB8101A0EB4100BBF80410B1
:102E500094B2BBF80820039E19431FFA80F911436E
:102E600030460022FEF7CEF8404640210022FEF711
:102E7000C9F844F2DA10C5F34745C0F60000475DD3
:102E8000DBF82800BBF8181007F00102FEF7BAF8CB
:102E9000DBF82C00BBF81A10C7F34002FEF7B2F8BB
:102EA000DBF83000BBF81C10C7F38002FEF7AAF86D
:102EB000DBF83400BBF81E10C7F3C002FEF7A2F81F
:102EC000DBF83800BBF82010C7F30012FEF79AF8C1
:102ED000DBF83C00BBF82210C7F340120127FEF7D5
:102EE00091F8832020FA05F2DBF84000BBF82410AB
:102EF00027EA0202FEF786F8DBF80C00BBF80410A4
:102F00000122FEF77FF80120FDF75AFFBBF804000D
:102F1000BBF80610BBF80820084340EA020130461F
:102F20000022FEF76FF8404640210022FEF76AF8C3
:102F300044F2DA17C0F600073D5DDBF82800BBF865
:102F4000181005F00102FEF75DF8DBF82C00BBF865
:102F50001A10C5F34002FEF755F8DBF83000BBF855
:102F60001C10C5F38002FEF74DF8DBF83400BBF807
:102F70001E10C5F3C002FEF745F8DBF83800BBF8B9
:102F80002010C5F30012FEF73DF8DBF83C00BBF85B
:102F90002210C5F34012FEF735F8832525FA04F216
:102FA000DBF84000BBF82410012323EA0202FEF7FD
:102FB00029F8DBF81000BBF806100122FEF722F812
:102FC000404640210122FEF71DF80120FDF7F8FEE2
:102FD000BBF80400BBF80610BBF80820084340EA21
:102FE000020130460022FEF70DF840464021002243
:102FF000FEF708F817F80940DBF82800BBF81810AE
:1030000004F00102FDF7FEFFDBF82C00BBF81A10FC
:10301000C4F34002FDF7F6FFDBF83000BBF81C10EC
:10302000C4F38002FDF7EEFFDBF83400BBF81E109E
:10303000C4F3C002FDF7E6FFDBF83800BBF8201050
:10304000C4F30012FDF7DEFFDBF83C00BBF82210F2
:10305000C4F34012FDF7D6FF25FA09F2DBF8400071
:10306000BBF82410012323EA020241F69A164CF61B
:10307000CD4441F27B49FDF7C5FFDBF81400BBF8F6
:1030800008100122FDF7BEFF0120FDF799FEBAF1FD
:10309000010A7FF4C3AE1DE640F2B000C2F20000A8
:1030A000406900F05FFD009C0B4644F2E4110246CB
:1030B0002046C0F60001FDF7A9F82046FDF741F9CA
:1030C00082B240F29410C2F2000021464FF0FF336A
:1030D000FFF75AFB40F2F5104CF6CD4541F69A1633
:1030E000029040F2B000C2F200004089BBF8063006
:1030F000810801FB09F481B26943C90C01FB06F2A6
:10310000120C02EB8202A1EB420201EB8101A0EB67
:103110004100BBF8041096B2BBF80820DDF80CA003
:10312000194387B2114350460022FDF76BFF40461A
:1031300040210022FDF766FF44F2DA10C4F3474451
:10314000C0F60000055D8146DBF82800BBF81810CA
:1031500005F00102FDF756FFDBF82C00BBF81A1052
:10316000C5F34002FDF74EFFDBF83000BBF81C1042
:10317000C5F38002FDF746FFDBF83400BBF81E10F4
:10318000C5F3C002FDF73EFFDBF83800BBF82010A6
:10319000C5F30012FDF736FFDBF83C00BBF8221048
:1031A000C5F34012FDF72EFF832020FA04F2DBF86E
:1031B0004000BBF82410012323EA02028325FDF717
:1031C00021FFDBF80C00BBF804100122FDF71AFF09
:1031D0000120FDF7F5FDBBF80400BBF80610BBF8B5
:1031E0000820084340EA020150460022FDF70AFF8A
:1031F000404640210022FDF705FF19F80640DBF8A4
:103200002800BBF8181004F00102FDF7FBFEDBF804
:103210002C00BBF81A10C4F34002FDF7F3FEDBF8F4
:103220003000BBF81C10C4F38002FDF7EBFEDBF8A6
:103230003400BBF81E10C4F3C002FDF7E3FEDBF858
:103240003800BBF82010C4F30012FDF7DBFEDBF8FA
:103250003C00BBF82210C4F34012FDF7D3FE25FA60
:1032600006F2DBF84000BBF82410012323EA020237
:1032700041F69A164CF6CD4541F27B49FDF7C2FE68
:10328000DBF81000BBF806100122FDF7BBFE40463C
:1032900040210122FDF7B6FE0120FDF791FDBBF8AC
:1032A0000400BBF80610BBF80820084340EA0201FE
:1032B00050460022FDF7A6FE404640210022FDF7C1
:1032C000A1FE44F2DA10C0F60000C45DDBF828006D
:1032D000BBF8181004F00102FDF794FEDBF82C0097
:1032E000BBF81A10C4F34002FDF78CFEDBF8300087
:1032F000BBF81C10C4F38002FDF784FEDBF8340039
:10330000BBF81E10C4F3C002FDF77CFEDBF83800EA
:10331000BBF82010C4F30012FDF774FEDBF83C008C
:10332000BBF82210C4F34012FDF76CFE832020FA94
:1033300007F20123DBF84000BBF8241023EA020265
:10334000FDF760FEDBF81400BBF808100122FDF762
:1033500059FE0120FDF734FD029801387FF4C0AE1C
:10336000B8E45FEA400C08BF91F0000F4FEA8C23ED
:103370004FEAC12243EA51514FEA1C5018BF00F5F1
:10338000F0404FEA300018BF41F000415FEA6C5C4A
:1033900000F02980BCF1FF3F08BF40F0804070473B
:1033A000130C06BF12044FF0100C4FF0000C130E5C
:1033B00004BF12020CF1080C130F04BF12010CF130
:1033C000040C930F04BF92000CF1020CD30F04BF46
:1033D00052000CF1010C11464FF00002A0F11F0049
:1033E000A0EB0C00704711F0004F08BF704731F0A0
:1033F00000413FF4D5AF0B0C06BF09044FF0100C91
:103400004FF0000C0B0E04BF09020CF1080C0B0F5F
:1034100004BF09010CF1040C8B0F04BF89000CF1EF
:10342000020CCB0F04BF49000CF1010CCCF12003BE
:1034300022FA03F341EA030102FA0CF2A0EB0C00BA
:1034400000F101007047000023F07F4720F07F4C1F
:1034500080EA030000F00040ACEB070303F57C5367
:1034600003F1FF032DE9804909B44FEA144324EA2C
:1034700003484FEA154B25EA0B4E0FF2042606EBE4
:1034800013273E7803FB0667C7F5000707FB06F620
:103490004FEAD64606F102064FEA543707FB066CA0
:1034A000CCF1005C4FEA1C472CEA074C0CFB06F5FC
:1034B00007FB06F404EB15464FEA961649085FEA47
:1034C000320234BF00204FF000404FEAD13706FBF4
:1034D00007FC4FEA1C4C0CFB0BF7D21B03FB0CF751
:1034E00061EB07010CFB0EF7B0EB074072EB1742E4
:1034F0000CFB08F734BFA2EB0742B2EB074261EBCB
:1035000017414FEA0C444FEA910706FB07FC4FEACC
:103510001C4C0CFB0BF7B0EBC74072EB573203FBB4
:103520000CF734BFA2EBC742B2EBC74261EB573195
:103530000CFB0EF7B0EBC70072EB57720CFB08F7F1
:1035400034BFA2EBC702B2EBC70261EB57714FEA7F
:10355000816141EA92114FEA826242EA90124FEA97
:10356000806004EBCC04039F4FEAD13706FB07FCD5
:103570004FEA1C4C0CFB0BF7D21B03FB0CF761EB67
:1035800007010CFB0EF7B0EB074072EB17420CFB88
:1035900008F734BFA2EB0742B2EB074261EB1741D9
:1035A0004FEA8C5504EB9C244FEA910706FB07FC7D
:1035B0004FEA1C4C0CFB0BF7B0EBC74072EB5732D9
:1035C00003FB0CF734BFA2EBC742B2EBC74261EB7F
:1035D00057310CFB0EF7B0EBC70072EB57720CFBC8
:1035E00008F734BFA2EBC702B2EBC70261EB577119
:1035F0004FEA816141EA92114FEA826242EA9012F7
:103600004FEA806015EB4C2544F100044FEAD137B6
:1036100006FB07FC4FEA1C4C0CFB0BF7D21B03FB11
:103620000CF761EB07010CFB0EF7B0EB074072EBF8
:1036300017420CFB08F734BFA2EB0742B2EB07427C
:1036400061EB17414FEA813141EA92414FEA823200
:1036500042EA90424FEA80304FEA0C7615EB1C1597
:1036600044F1000448EA03434EEA0B484FF0000ED1
:10367000B2EB080C71EB030724BF624639464EEBF0
:103680000E0E4FF0000B0018524149414BEB0B0B53
:10369000B2EB080C71EB03077BF1000B24BF624611
:1036A00039464EEB0E0E4FF0000B001852414941C7
:1036B0004BEB0B0BB2EB080C71EB03077BF1000B30
:1036C00024BF624639464EEB0E0E51EA020718BF80
:1036D00046F0010616EB0E7655F1000254F100019A
:1036E00003D5BDE88901BDE80088BDE88901BDE8D2
:1036F0000048B619524141EB0101A3F101037047A3
:1037000080807F7E7D7C7B7A79787776767574731E
:10371000727171706F6E6E6D6C6C6B6A6A696868DD
:10372000676666656464636362616160605F5F5E73
:103730005E5D5D5C5C5B5B5A5A59595858575756E9
:10374000565555555454535352525251515050504E
:103750004F4F4F4E4E4D4D4D4C4C4C4B4B4B4A4AA0
:103760004A494949484848474747474646464545E4
:10377000454444444443434343424242424141411D
:103780009C46002B30D477002BD04FEA37071CB56E
:1037900003B44FF010004FF01001BAF1000F06D043
:1037A000BCF1000FDCBF40F0080040F008014FF012
:1037B00000000FBCBDE810400BF1010BBBF1010F85
:1037C00008BF5FEA170722BF12F1010211F10101E0
:1037D0004FF0004143F1000300F0004043EA0000D5
:1037E0007047F9D35708D0E746EA06464FEA16462F
:1037F00013F1400F1FDD13F1200FDFBF16430A4600
:10380000002120335B42BED0C3F1200746EA0646C2
:103810004FEA164602FA07F746EA070622FA03F2CB
:10382000C3F1200701FA07F742EA070221FA03F180
:103830004FF00003A7E746EA020646EA06464FEACB
:10384000164646EA0106BCBF46EA0646360C4FF06D
:1038500000034FF000024FF0000194E72DE9804C87
:1038600070B49A46934691E8380007C831EA400C94
:1038700048BF34EA430C03D5FFF7E6FDFFF780FFAE
:10388000F0BCBDE8008C2DE9804C70B49A4693469C
:1038900091E8380007C810F0804F08BF13F0804F40
:1038A00003D100F005F8FFF76BFFF0BCBDE8008C1A
:1038B00020F07F4723F07F4C80EA030000F00040B7
:1038C00007EB0C03A3F57C53A3F1FE0392F0000F6A
:1038D00000F0B38095F0000F00F077802DE90149EA
:1038E0004FEA114021EA00484FEA144624EA06470D
:1038F00000FB06FC08FB06F607FB08F818EB064879
:103900004CEB164C00FB07F718EB07484CEB174045
:103910004FEA124B22EA0B4E4FEA154625EA0647BC
:103920000BFB06FC0EFB06F607FB0EFE1EEB064E1F
:103930004CEB164C0BFB07F71EEB074E4CEB174BF3
:1039400018EB0B0840F1000018EB0E0B58EB0008C9
:1039500040F100008F1A4FF000014FF000063CBF0D
:10396000C943661B14BFB5EB040C00213CBFC9431F
:10397000F61B4FEA174427EA04454FEA1C472CEA96
:10398000074C04FB076205FB07F70CFB05F616EB7B
:10399000074642EB174204FB0CFC16EB0C4642EBCD
:1039A0001C421BEB060658EB020241414EEA8E0E0A
:1039B00046EA9E0601D5BDE80189B619524141EBA0
:1039C0000101A3F10103BDE801894FEA144524EA8E
:1039D00005464FEA114721EA074C05FB07F406FBB1
:1039E00007F70CFB06F111EB074144EB174405FB0D
:1039F0000CFC11EB0C4144EB1C444FEA124722EA49
:103A0000074C05FB07F206FB07F70CFB06F616EB67
:103A1000074642EB174205FB0CFC16EB0C4642EB4B
:103A20001C456A1854F1000148BF7047B61952414D
:103A300041EB0101A3F10103704795F0000F37D06E
:103A40004FEA114221EA02464FEA144724EA074CA2
:103A500002FB07F106FB07F70CFB06F414EB074427
:103A600041EB174102FB0CFC14EB0C4441EB1C41F5
:103A70004FEA154725EA074C02FB07F506FB07F757
:103A80000CFB06F616EB074645EB174502FB0CFC54
:103A900016EB0C4645EB1C42121951F1000148BFD0
:103AA0007047B619524141EB0101A3F10103704780
:103AB0004FEA144524EA05464FEA114721EA074C2C
:103AC00005FB07F106FB07F70CFB06F212EB0742BA
:103AD00041EB174105FB0CFC12EB0C4251EB1C4176
:103AE0004FF0000648BF7047921841EB0101A3F167
:103AF00001037047490050EAC12018BF04204A0D55
:103B000018BF40F0010040F2FF72B2EB515F08BFF6
:103B100040F00200012808BF0520704730380A280D
:103B200001D20120704700207047000010B5002925
:103B30000AD00878002807D005487844FCF77EFFB3
:103B4000002801D0002010BD0248784410BD0000BC
:103B5000F2060000EA0600000808A0F500114FEA8E
:103B60003101704743004FEAD30C4FEA3C0C43400D
:103B70001FBF40070CF1605113F0FE4F70471CF05F
:103B8000006F03D10CF00041002070470CF000439F
:103B900043EA507040EACC0010B500F0FCF900BFD9
:103BA000000000924FEA0001FFF7D6BF4FF000413E
:103BB000A1F500214FF000007047000090EA010FCE
:103BC00048BF81F0004100F13882421A3CBF801AA0
:103BD00089184FEAD052A2EBD1534FF07F4C1CEA28
:103BE000410F18BF9CEA026F00F03B804FF0004C81
:103BF0004CEA00204CEA012121FA03FC10EB0C0CEA
:103C00001ED202F1FF325FEA1C2040EBC25038BFE7
:103C100070471CF07F0F4FEA400C18BFBCF17F4F7C
:103C200038BF7047C3F12003994008BF20F001005E
:103C3000BCF17F4F38BF7047A0F1C04000F0F1B930
:103C40004FEA3C00000A40EBC25028BF1CF0FF0FB7
:103C50004FEA400CE6D018BFBCF17F4F38BF704729
:103C6000EAE79CEA026F05D010EA5C0F08BF00F09B
:103C70000040704710B500F08EF900BF64FBBE3EF7
:103C80004FF47F0C1CEAD0121EBF1CEAD11392EA3B
:103C90000C0F93EA0C0F00F0858090EA010F48BFEB
:103CA00042F4807240F4000C41F400002CF07F419B
:103CB00020F07F4000B5A2EB030281420FF2081C06
:103CC000ACEB504E9EF800E0C0F100004FEA4E0E03
:103CD00000FB0EFC38BF49004FEA2C1C0CFB0EF316
:103CE0004FEACE1E0EEB635E4FEA112C0EFB0CFC6E
:103CF0004FEAC1214FEA1C5300FB031102F5FA02FF
:103D00004FEA112C0EFB0CFC4FEA01314FEADC4C60
:103D100000FB0C1142EB2242C14228BF09184CEBB8
:103D200003335DF804EB10EB410143EBC250B2F5F5
:103D30007C0F38BF704729D512F0F00F1CBF00F17F
:103D4000C04000F0004070470081828384858687F0
:103D500088898B8C8D8E8F919293959697999A9C4A
:103D60009D9FA0A2A3A5A7A8AAACAEB0B2B3B5B7B9
:103D7000B9BCBEC0C2C5C7C9CCCED1D4D7D9DCDF8F
:103D8000E2E6E9ECF0F3F7FAFE0000004FEA400C3F
:103D90000CF1807CBCF17E4F28BF7047B0F1C04071
:103DA00000F03FB90CEAD11390EA010F48BF42F48A
:103DB0008072624538BF634507D213F47F0F16D077
:103DC00080EA010000F00040704710B500F0E3F811
:103DD000097EFC3E00F005B880EA010000F00040DA
:103DE000704780EA010000F0004000F01AB912F4B8
:103DF0007F0F04BF0248704780EA010000F011B94C
:103E00000000C07F41000B0ED3F19E0208D950F490
:103E100000034FEA032323FA02F048BF40427047F1
:103E200010B500F0B8F800BF499224800020704718
:103E30006FF0004282EA20007047000010F000415D
:103E400048BF4042B0FA80F310FA03F2C3F19D0379
:103E50000BD051EAC35101EB1220530638BF704713
:103E600000F1010008BF20F001007047B0FA80F3B4
:103E700010FA03F2C3F19D030AD0D90501EB122019
:103E8000530638BF704700F1010008BF20F0010061
:103E9000704700004FF47F0C1CEAD0121EBF1CEAD2
:103EA000D11392EA0C0F93EA0C0F00F0478090EACE
:103EB000010F48BF42F480724FF0004C4CEA0020E2
:103EC0004CEA012102EB0302A0FB0113A2F5000260
:103ED000002918BF43F001035B0028BF4FEA3303FA
:103EE00042EB22425FEA132C4CEBC2502EBFBCEBDC
:103EF000436FB2F57C0F70474FEA036CBCF1004F83
:103F000008BF20F00100B2F57C0F38BF70470BD519
:103F100082F0FF0212F5803FC8BF704700F1C04039
:103F2000D8BF00F00040704700F5000C5FEA4C0C71
:103F300048BF7047B0F1C04000F073B80CEAD1132D
:103F400090EA010F48BF42F48072624538BF634572
:103F500004D280EA010000F00040704710B500F084
:103F60001AF800BF8900013E00F007B800F009B858
:103F70005FEA410C5FEA1C6C08D080EA010000F0A7
:103F800050B85FEA400C5FEA1C6CF6D14FF000407D
:103F9000A0F5800070470EF1020E2EF0030E5EF8C1
:103FA000044B244204D44FEA4102B2F17F4F11D8AE
:103FB0004FEA4003B3F17F4F0CD80ED14FEAD07CCB
:103FC0000CEB4C0C0CF1020CB2F17F4F08BF4CEB28
:103FD000D17C04E04FF0080C01E04FEAD17C0CEBFF
:103FE0004C0324FA03F404F00704B4F1040C06D2E1
:103FF0000EEB840CBDE810404CF0010C6047DFE88C
:104000000CF0070802024FF00040A0F5800010BD40
:104010000846420018BFD2F1807288BF00F000400D
:1040200010BDFF2141EAD050C005704790EA010F52
:1040300048BF81F000413FF5C8AD421A04D882F074
:104040000042A0EB020011444FEAD052A2EBD15340
:104050004FF07F4C1CEA410F18BF9CEA026F4AD018
:104060004FF0004C4CEA00204CEA012121FA03FCFD
:10407000B0EB0C0C0FD412F0FE0F36D05FEA4C0000
:104080001DD5001240EBC25038BF70471CF03F0FE7
:1040900018BF70470BE05FEA1C20A2F1010240EB61
:1040A000C25038BF70471CF07F0F18BF7047C3F174
:1040B0002003994014BF401E20F0010070474FEAD2
:1040C0001223800808BF7047B0FA80FCA2EB0C02F4
:1040D000CCF1280C60FA0CF093EA122F04BF00EB2D
:1040E000C25070474FEAC3707047130A5FEADC1092
:1040F00008BF7047F6E79CEA026F04D010EA5C0F35
:1041000008BF0020704710B5FFF745FF40DFF63EBF
:1041100081F000407047FCF70EBA0000024000003A
:10412000000000A00000000005400000000000C8E2
:10413000000000000C4000000000409C0000000057
:10414000194000000020BCBE000000003440000008
:10415000BFC91B8E00000004B5400000504BCFD0FB
:104160006607E2CF010000006C4100003E8251AAC8
:10417000DFEEA73401000000D9420000DCB5A0E268
:104180003A301F97FFFFFFFFB4450000FD25A0C890
:10419000E9A3C14FFFFFFFFFFF3F000000000080C9
:1041A00000000000FF3F0000000000800000000051
:1041B00000000000000000000102030406070809D7
:1041C00000000000010203040102020304050607C7
:1041D00008090A0B0C0D0E0F10103F065B4F666DA1
:1041E0007D077F6F48756D69646974793A20252E63
:1041F000306625250D0A0054656D70657261747511
:1042000072653A20252E3166430D0A0048420008A7
:1042100000000020500000005001000898420008F3
:104220005000002090070000700100081C000000F2
:1042300043000000F8FFFFFF0C0000000E0000002C
:104240000F0000002E000000E80300000200000440
:1042500000080000000C0140000C0140000C01406F
:10426000020008002000800001000400100000008F
:10427000000801400008014000080140000801401A
:10428000000C01400008014000080140010000004E
:084290001000000000127A008A
:04000005080000ED02
:00000001FF
